:020000040800F2
:1000000038090020D5000008E12100084B1E000837
:1000100000000000000000000000000000000000E0
:100020000000000000000000000000007F23000826
:1000300000000000000000007D230008812300086C
:10004000E7000008E7000008E7000008E7000008F4
:10005000E7000008E7000008E7000008E7000008E4
:1000600000000000E7000008E7000008E7000008C3
:10007000E7000008E7000008E7000008E7000008C4
:10008000E7000008E7000008E7000008E7000008B4
:1000900000000000E7000008E7000008E700000893
:1000A000E7000008E7000008E7000008A9280008AA
:1000B000BD280008E7000008000000000000000064
:1000C0000348854600F080FA00480047593500088B
:1000D000380900200448804704480047FEE7FEE74F
:1000E000FEE7FEE7FEE7FEE711240008C100000876
:1000F00030B50B46014600202022012409E00D46C0
:10010000D5409D4205D31D469540491B2546954047
:1001100040191546521E002DF1DC30BDF0B51FB45C
:100120000646002082B005464024019100901BE065
:10013000019922460F46304600F06FF8049A059B5D
:10014000801A994110D310461946224600F055F8FE
:10015000361A8F410197224601200021009F00F0AE
:100160004CF838184D4100902046641E0028DFDC12
:10017000019B00982946324607B0F0BD03460B4369
:100180009B0703D009E008C9121F08C0042AFAD24D
:1001900003E00B780370401C491C521EF9D27047D3
:1001A000D2B201E00270401C491EFBD2704700220F
:1001B000F6E710B513460A4604461946FFF7F0FF66
:1001C000204610BD30B505462A460B4610781C78EF
:1001D000521C5B1C002801D0A042F7D0002C03D099
:1001E000002802D06D1CEFE7284630BD421C017884
:1001F000401C0029FBD1801A704710B5202A04DB6F
:100200000146203A9140002010BD914020239C1AC5
:100210000346E3401943904010BD10B5202A04DB8B
:100220000846203AD040002110BD0B46D340D040B4
:100230002024A21A91400843194610BDF0B5074684
:100240000846584087B0C00F049048000E46590039
:1002500040084908BC1A884105D2384631461E4636
:1002600017460B4602465800400810434CD0300D4C
:10027000039040055900400D490D0590401A029029
:10028000402872DA18030121000B09050843019088
:1002900004980092002805D001995242002088411C
:1002A00000920190029840210A1A01990098FFF7E4
:1002B000A4FF05460C466B4607CB00F097F9C01922
:1002C0007141039A0E0D0023D71756401A467A4003
:1002D000164344D0049A002A2DD0029A012A039A88
:1002E00015DC1205C01A914101263605001C71412A
:1002F000D20F059ED2070093019202962A4623460A
:1003000000F094F907B0F0BD38463146FAE716051B
:10031000224A0F46B218C01AB74101210905001C34
:100320004F4100187F41114618187941E20F1043E0
:100330006D19644113E0E2076D0815436408C207B4
:100340001443039A01261205C01A91413605001C78
:100350007141CE07400830434908C01851412A4630
:10036000234600F056F9CDE7FFE70498012240004C
:10037000C117121A00238B4104983146C417381A4A
:10038000A141EEE730B40124E407634030BC55E7F7
:1003900030B40124E407614030BC4FE70000E0FFC7
:1003A000F0B51FB488B00B9909980024484009990A
:1003B000C00F490049080991C0070B9900904900F6
:1003C00049080B9109990898A64608431CD00B9937
:1003D0000A98084318D0099801244000420D4800AB
:1003E000410D099824050003000B204309900B9848
:1003F0000003000B20430B9050181C4940180022AA
:1004000001901446104605E0002001460DB0F0BDF5
:10041000032801DA034600E003239C46C11A0AAE12
:100420000AE05F0008ADED5B4F00F75B7D430027FE
:10043000AA187C41491C5B1E6145F2DD410004ABFA
:100440005A522104120C0A43240C401C0828DFDBFA
:10045000019802900099704601910090059B049AC2
:100460000799069800F0E2F8D0E700000DFCFFFFC6
:10047000F0B50C465C4085B0E40FE40703944C00F3
:100480000026640859009446490802460296224311
:1004900021D062460A431ED06200570D4A000E0367
:1004A0002303550D012402462C492405781B1B0B00
:1004B000360B401823432643614600901C46501AD1
:1004C000B44103D30098401C009002E092180098B9
:1004D0005B41002803DA0020014605B0F0BD002092
:1004E000012109050746864611E064461D46141B96
:1004F000B54106D36546521BB341744607430C43CE
:10050000A646CD0740084908284392185B41054696
:100510000D43EAD11046184313D0604619465040A7
:100520007140084306D06046101AB34106D201223A
:10053000002306E000220123DB0702E00122D24370
:100540005310009874460105381C6141029C039DBC
:100550000019694100F05DF8BFE70000FD030000ED
:100560004A0009030123090B1B0519430A4B10B567
:10057000520D9A4202DA0020014610BD064B343378
:100580009A4203DC9A1AFFF748FE10BD034BD218BB
:10059000FFF733FE10BD0000FF030000CDFBFFFF9F
:1005A00010B5002904DB0124E40740428C412146B8
:1005B000002B04DB1C460123DB075242A341994276
:1005C00000D1904210BD0000064C0125064E05E00A
:1005D000E36807CC2B430C3C98471034B442F7D364
:1005E000FFF772FDE04300080044000810B5202A20
:1005F00006DBCB170846203A1041C1170B4306E033
:100600000B461341D0402024A21A914008431946BA
:1006100010BD10B5002B08DA0024401C614192186F
:100620005B411A4301D14008400010BDF0B51FB432
:1006300082B005460C0003D0084602F073FA02E0CF
:1006400002F070FA20300246009021462846FFF75B
:10065000D4FD049B059A04460F46184311430843F2
:1006600014D0184610431BD0009840210A1A18468F
:100670000599FFF7D2FD05460E46009A05990498A4
:10068000FFF7BBFD084305D0012004E020463946B2
:1006900007B0F0BD0020C11705430E432C4337437C
:1006A00000990E986305401A7905E40A00220C436C
:1006B000FD0A0A3002D500200146E9E701051019BC
:1006C00069410C9C0D9D00196941FFF7A2FFDFE70E
:1006D000F0B5644887B0416B022529434163406B04
:1006E000EE0228400124052700963F07059001945B
:1006F000694603950294384600F046FB202000909E
:100700000194694603950294384600F03DFB802031
:1007100000900194694603950294384600F034FB3A
:1007200001223146384600F0E2FB01222021384602
:1007300000F0DDFB01228021384600F0D8FB0122C9
:10074000D4022146384600F0D2FB642000F00AFBB8
:1007500000222146384600F0CAFB642000F002FB6C
:1007600001222146384600F0C2FB0021AE2001F0F4
:10077000D6FD0021022001F0D2FD0021102001F061
:10078000CEFD0021402001F0CAFD0021812001F0B2
:10079000C6FD0021CF2001F0C2FD0021A12001F003
:1007A000BEFD0021C82001F0BAFD0021A62001F005
:1007B000B6FD0021A82001F0B2FD00213F2001F08C
:1007C000AEFD0021D32001F0AAFD0021084601F072
:1007D000A6FD0021D52001F0A2FD0021802001F01E
:1007E0009EFD0021D92001F09AFD0021F12001F0A9
:1007F00096FD0021DA2001F092FD0021122001F087
:100800008EFD0021DB2001F08AFD0021402001F057
:1008100086FD0021202001F082FD0021022001F050
:100820007EFD00218D2001F07AFD0021142001F0D1
:1008300076FD0021A42001F072FD0021A62001F028
:100840006EFD0021AF2001F06AFD0021AF2001F014
:1008500066FD01F0C6FC0021084601F0E0FC07B08F
:10086000F0BD00000010024010B50C4BDA695206D2
:10087000FCD5002206E0845C9C62DC696406FCD541
:10088000521CD2B28A42F6D3054900204870FF219B
:1008900001310448FFF78BFC10BD0000004400400C
:1008A000160000201802002070B50C460546C8212D
:1008B0002548FFF77CFC25A20221002001F018FD4D
:1008C00026A20221002001F013FD20A20421002015
:1008D00001F00EFD25A20421002001F009FD1BA25C
:1008E0000621002001F004FD22460621002001F02F
:1008F000FFFC23462A4621A1134802F0EDF82648C2
:1009000000F030FA254A26A10F4800F0CBF8002865
:1009100001D0052070BD642223A124A000F0C2F8FC
:10092000002801D0012070BD642224A124A000F081
:10093000B9F8002801D0042070BD244900200880A7
:100940002349087070BD00003800002020202020BE
:10095000202020202020202020202000434F4E4E09
:100960004520534552564552202E2E00454D5120CC
:100970004D515454205345525645520041542B4337
:10098000495053544152543D22544350222C222565
:1009900073222C257300000088130000B80B0000A0
:1009A000434F4E4E454354004F4B000041542B43A0
:1009B00049504D4F44453D31000000003E000000CD
:1009C00041542B43495053454E4400001A00002027
:1009D00005000020F0B50746144CC1B000200D46BC
:1009E00020601646C8211248FFF7E1FB2B4632462D
:1009F00010A10F4802F070F86B4600220C493846EF
:100A000001F09EFA82B2206064236946184801F022
:100A1000AFF9FF2101311748FFF7C9FBFF202D3047
:100A200000F0A0F9012041B0F0BD0000000000205E
:100A3000380000207B22706172616D73223A7B2244
:100A400052656C617469766548756D69646974791D
:100A5000223A25732C2243757272656E7454656D4B
:100A60007065726174757265223A25737D7D000030
:100A7000180400201801002010B508490024098836
:100A8000012909D101460648FFF79CFB0446FF21D6
:100A900001310348FFF78BFB204610BD1A000020F0
:100AA00018010020F7B5FF2114460027013117482F
:100AB000FFF77DFB164D00262E8016A0009901F051
:100AC000FBFF16A0009901F003FF019800281AD03F
:100AD000002C13D117E00A2000F044F928880128DF
:100AE0000CD10A4910A001F0F3FE0198FFF7C4FFF2
:100AF000002802D0002C05D005E02E80641E2404BE
:100B0000240CE8D101272E803846FEBD18010020B4
:100B10001A00002025730D0A0000000041542D2DFD
:100B20003E25730D0A000000526563657669652DE8
:100B30002D3E25730D0A000070B50C4605462DA20A
:100B40000221002001F0D4FB2EA20221002001F09E
:100B5000CFFBC8222FA130A0FFF7A4FF002808D0A8
:100B6000C8222CA12CA0FFF79DFF002801D0FF2058
:100B700070BD20A20221002001F0BAFB28A20221B0
:100B8000002001F0B5FBC82222A129A0FFF78AFFAF
:100B900018A20221002001F0ABFB28A202210020B4
:100BA00001F0A6FBC8212948FFF701FB11A204218F
:100BB000002001F09DFB2A460421002001F098FB53
:100BC0000CA20621002001F093FB22460621002002
:100BD00001F08EFB23462A461DA11C4801F07CFF34
:100BE0007D22D2001FA11948FFF75CFF0028BFD06B
:100BF000FD2070BD2020202020202020202020202B
:100C0000202020005749464920434F4E4E4543542B
:100C1000202E2E004F4B00004154453000000000B4
:100C200057494649205345544D4F4445202E2E00E8
:100C300041542B43574D4F44453D33005749464996
:100C40002053455453534944202E2E003800002091
:100C500041542B43574A41503D222573222C2225D3
:100C6000732200005749464920474F5420495000FD
:100C700072B6FEE7F0B5002808D0014620314A7967
:100C8000022A05D00422C263002008710120F0BDB1
:100C9000026813680E24A3431360426C1468FF2398
:100CA00001339C4314600268146864086400146093
:100CB0000C4A5568066C1C24264001242746B74080
:100CC0003D435560826CC56C5560026D002A05D0AD
:100CD00015689D431560826D406D42604C71002027
:100CE0000871F0BD00000240F8B500240246203231
:100CF0005179022903D00421C16301242DE0016848
:100D00000B680E25AB430B6001680B685B085B004A
:100D10000B60416C0B68FF250135AB430B6010493C
:100D20004D68066C1C231E4001231F46B7403D43FF
:100D30004D60816CC56C4D60016D002906D00E6858
:100D40001D02AE430E60416D856D4D6053710021F3
:100D50001171816B002900D088472046F8BD000042
:100D60000000024070B5044600F0C8F80546601C5B
:100D700002D004480078241800F0C0F8401BA042BC
:100D8000FAD370BD20000020FCB5002301259AE0B5
:100D900022462C469C4022406FD04E68012E05D042
:100DA000022E03D0112E01D0122E16D186680327F1
:100DB000B4465E00B646B7406646BE43B446CF680A
:100DC0007646B7406646374387604668A6430C7947
:100DD000E406E40F9C4034434460C6685F0003248B
:100DE000BC40A446A6438C68BC403443C4604C68F5
:100DF000022C01D0122C14D1DC08A4002418019478
:100E0000266A5C07B646E60E0F24B4400096764686
:100E1000A643B6460C69009EB44076462643019C24
:100E2000266204686646B4430E79B607B60FBE4024
:100E3000264306604C68E40044D59E08254CB60065
:100E40003419A446246E9E07F60E0F27B740BC4304
:100E500005273F07B84201D1002710E01E4FB842D6
:100E600001D101270BE01D4FB84201D1022706E056
:100E70001B4FB84202D1032701E023E00527B7400A
:100E8000274364462766134E803634684F68944380
:100E9000FF0300D51443346074684F689443BF0364
:100EA00000D5144374600B4C26684F689643FF02CC
:100EB00000D51643266066684F689643BF0200D58A
:100EC000164366605B1C0A681446DA4000D05FE790
:100ED000FCBD000000180240000400500008005053
:100EE000000C00500069084000D001207047002A23
:100EF00001D08161704781627047000001488068BD
:100F0000704700002000002002488168027889189C
:100F1000816070472000002010B508480024016857
:100F2000821511430160204600F00AF8002801D024
:100F3000012401E000F028F8204610BD0020024006
:100F400070B50F4E002431780546002915D07D205C
:100F5000C000FFF7CDF801460A480068FFF7C8F85F
:100F600000F034FC002808D1042D06D200222946C6
:100F7000401E00F02BF8756000E00124204670BD93
:100F8000200000202C00002008B50948016801223B
:100F90001143016000681040009005484038C26B62
:100FA00001040A43C263C06B0840009008BD000002
:100FB00040100240002805DBC106C90E0120884010
:100FC000014908607047000000E100E010B501F041
:100FD000C1FD10BD10B50F4C216803225202914390
:100FE00001432160C11FFF39FA390ED10A48062199
:100FF000006848430949FFF77BF8401C02E00028DD
:1010000005D0401E61694905F9D4002010BD0320B8
:1010100010BD0000007000402C00002040420F0076
:10102000F8B5044600680026664D800358D565482B
:1010300000274038C06BC00009D462484038C26BFA
:1010400001040A43C263C06B0840012700905E4858
:101050000168821511430160FFF750FF009005E021
:10106000FFF74CFF0099401A022825D8564800681F
:10107000C005F5D5E8690321090208400FD0616A6F
:1010800081420CD0E86903210902EA698843012101
:1010900009040A43EA61EA698A43EA61E861C00730
:1010A0000FD0FFF72BFF009008E0FFF727FF009914
:1010B000411A4648814201D9032609E0E8698007C0
:1010C000F3D5E869032109028843616A0843E861AE
:1010D000002F05D03B484038C26B01048A43C263ED
:1010E0002078C00705D068696168800880000843DF
:1010F00068612078C00606D56869032189028843A3
:10110000A168084368612088800506D568690321C5
:10111000890488436169084368612088400506D5D1
:101120006869032109058843A1690843686120783B
:10113000800606D56869032109038843E1680843EE
:1011400068612088400411D56869E16980008008E1
:10115000084368610121E0698907884206D119487E
:101160004038C168012212041143C1602068800226
:1011700010D5686901218905226A88431043686196
:10118000206A884206D10F484038C1680122120601
:101190001143C1602088000512D5686903218903C5
:1011A00088432169084368610121206989038842D5
:1011B00006D104484038C168012212041143C160BD
:1011C0003046F8BD40100240007000408813000017
:1011D000F8B50F46060043D04D4D28684007400F34
:1011E000B84213D22868C008C00038432860FFF70F
:1011F00085FE044605E0FFF781FE011B454881425C
:1012000061D828684007400FB842F4D13068424C9A
:1012100081070DD5400704D5A068072109030843BD
:10122000A060A0680F2109028843B1680843A0604C
:101230003078C00732D0706801280AD002280BD05D
:1012400000280FD03449403103280ED0C9698907DE
:1012500004E02168890301E021688901002906DB97
:101260000120F8BD21684905F8E7096AEFE7A168A0
:10127000C908C9000143A160FFF740FE009006E0E5
:10128000FFF73CFE0099411A224881421BD8A06812
:10129000382108407168C9008842F1D128684007A8
:1012A000400FB84217D91A480168C908C900394324
:1012B0000160FFF723FE054607E0FFF71FFE411B15
:1012C0001448814201D90320F8BD11480068400745
:1012D000400FB842F1D13078400706D5A068072109
:1012E00009038843F1680843A06000F031F8A16861
:1012F0003C2289091140094A515CC906C90EC840FF
:101300000749086007480068FFF71AFEF8BD0000AB
:1013100000200240881300000010024078430008BB
:101320002C00002024000020064807490068896836
:10133000064A4904490F8900515CC906C90EC840D4
:10134000704700002C00002000100240B843000845
:1013500010B5204CA068204A8006400F16D0A06827
:101360008006410F501001290FD0A1688906490F4E
:10137000022912D0A0688006400F042823D0A0685C
:101380008006400F032821D0002010BD20680121D5
:101390008004400F8140104612E0E1688B07E1684D
:1013A0009B0F4906490F491C032B00D01046FEF73E
:1013B0009FFEE1684904490E4843E168490F491C12
:1013C000FEF796FE10BD0120C00310BD7D20000277
:1013D00010BD0000001002400024F400F8B5040025
:1013E0007ED020783827C007EF4D002846D0A86867
:1013F000E96838408907890F102802D008280BD0E7
:1014000001E0032908D001206268000482420AD169
:1014100029680143296015E0286880032ED560689B
:101420000028DDD02AE0052301211B0489049A420B
:101430002A6802D10A432A60EAE782432A602868C0
:1014400088432860606800280CD0FFF757FD0646E7
:1014500004E0FFF753FD801B642873D828688003DD
:10146000F7D50BE0FFF74AFD064604E0FFF746FD1F
:10147000801B6428F1D828688003F7D4207880077F
:1014800069D5A868E96838408A070721920FC90220
:10149000102802D0002813D001E0022A10D0E06802
:1014A000002846D0286888432169084328602868B6
:1014B000FF21013108432860FFF720FD06462CE09C
:1014C0002A68520502D5E268002A89D06A687F231B
:1014D0001B029A4363691B021A436A60002800E0FA
:1014E0008DE00ED128688843216908432860286868
:1014F00001218004400F8140AC48FEF7F9FDAC4962
:101500000860AC480068FFF71BFD002877D122E097
:10151000FFF7F4FC801B02289FD828684005F7D508
:1015200068687F210902884361690902084368608D
:1015300011E02968FF20013081432960FFF7DEFCBC
:10154000064605E098E0FFF7D9FC801B022884D806
:1015500028684005F7D42078974E00072ED5A86854
:101560008006400F03280AD0A0690028306A16D0F0
:10157000012108433062FFF7C1FC07460BE0306AE7
:1015800080071BD5A06900289FD017E0FFF7B6FCA5
:10159000C01B022870D8306A8007F7D50EE04008DB
:1015A00040003062FFF7AAFC074604E0FFF7A6FC04
:1015B000C01B022860D8306A8007F7D42078400723
:1015C0006CD5A86800278006400F042818D0E86B67
:1015D000C00008D4E96B012000070143E963E96B0F
:1015E00001400127009175480168C90519D40168B7
:1015F000821511430160FFF781FC00900DE083E04C
:10160000F06980074AD5A06800287DD046E0FFF742
:1016100075FC0099401A02282ED868480068C00559
:10162000F5D5A168012910D004200529F16911D050
:1016300049084900F161F1698143F161A06800281E
:1016400016D0FFF75BFC00900EE0F0690121084323
:10165000F061F3E70143F161F7E7FFF74FFC009911
:10166000411A574881426FD8F0698007F5D50EE0DE
:10167000FFF744FC009007E066E0FFF73FFC0099AD
:10168000411A4F4881425FD8F0698007F5D4002F96
:1016900004D0E86B012109078843E863E06900286A
:1016A0007FD0A9688906490F022953D00126360642
:1016B000022828680DD0B0432860E86880088000C0
:1016C000E860E8683F490840E860FFF717FC044617
:1016D0003CE0B0432860FFF711FC074604E0FFF749
:1016E0000DFCC01B02282FD828688001F7D4616A3E
:1016F000206AA26A0843E16A120211430843216B7F
:101700000843616B084300E049E0E9682E4A114054
:101710000843E860286830432860E8680121090729
:101720000843E860FFF7EAFB044604E0FFF7E6FB46
:10173000001B022808D828688001F7D531E0FFF7A0
:10174000DDFB001B022801D90320F8BD28688001B9
:10175000F5D426E00128F8D0E868226A8107890FCD
:1017600091421CD17021626A0140914217D17F21C0
:10177000A26A090201401202914210D11F214904BC
:10178000E26A014091420AD107214906226B0140D9
:10179000914204D1400F616B4007884201D0012083
:1017A000F8BD0020F8BD0000001002400024F40045
:1017B0002C00002024000020401002400070004057
:1017C00088130000FFFFFEEE8C80C111094910B59F
:1017D000401E884201D9012010BD074C60610321E1
:1017E000081F01F0B7F90020A06107202061002048
:1017F00010BD0000FFFFFF0000E000E010B5014653
:1018000080310A78012A15D001220A7024224A6008
:1018100002681368146864086400146001225207A7
:1018200093430022426600680360202048600A70EB
:10183000104610BD022010BD7047704770B50446B9
:1018400005468034207801281AD0012020702420F9
:1018500060602868066802685208520002602868C2
:10186000826807235B069A430A438260284600F099
:10187000D7FD28680660202060600020207070BDC1
:10188000022070BD70B504460546803420780128DA
:1018900019D0012020702420606028680668026842
:1018A00052085200026028688268D200D2080A43B7
:1018B0008260284600F0B4FD286806602020606041
:1018C0000020207070BD022070BD704770477047C7
:1018D000F8B503680446D96918689A68914D0E46B0
:1018E0002E4025468035002E6CD08F4E8F4F1640EF
:1018F000074037437FD0CF0706D0C70504D501275F
:101900001F62EB683B43EB608B0708D5D30706D01B
:10191000276802233B62EB6804273B43EB604B07DD
:1019200008D5D30706D0276804233B62EB6802275B
:101930003B43EB600B0709D520230340334305D01D
:10194000266808233362EE681E43EE600B0509D556
:10195000430107D501232668DB023362EB682026AA
:101960003343EB60EB68002B3AD089060AD520217F
:101970000840C9050A40104304D0216F002901D056
:1019800020468847E86821688968490602D42821EA
:1019900008422AD0204600F015FE206881684906DA
:1019A0001FD5826840218A438260E06F002818D0EA
:1019B0005F498163E06FFFF797F9002810D0E06F6F
:1019C000816B0CE08E0616D5012720263F070640C6
:1019D00017403E430FD0216F7FE00CE02046884740
:1019E000F8BD2046FFF773FFF8BD2046FFF76FFFF5
:1019F0000020E860F8BDE66E012E59D1CE0657D51D
:101A0000C60655D510221A62206881682646490606
:101A1000403600292BDAE36F196849680904090C7C
:101A2000E8D0B78B8F42E5D9F18319680968890638
:101A300018D401681301994301602068816849083E
:101A4000490081602068816840239943816020209B
:101A5000A8600020E0662068016891430160E06FA3
:101A6000FFF708F9B08BF18B401A81B21CE0B18B03
:101A7000F38BC91AF38B89B2002BBBD00029B9D0E4
:101A80000368FF262136B343036020688368264E2F
:101A9000F643334083602020A8600020E066206782
:101AA00020680368934303602046FFF7C5FEF8BD36
:101AB000CE0208D5560206D5012000051862204640
:101AC000FFF704FFF8BD0E060BD501278026FF05A2
:101AD00006403A40164304D0616F002900D07DE7EC
:101AE000F8BD4A060DD542060BD51A68204640219E
:101AF0008A431A60202169600021616700F0A4F91F
:101B0000F8BD0A0205D5420003D52046FFF7DDFEE9
:101B1000F8BDC901FCD50028FADA2046FFF78DFE92
:101B2000F8BD00000F0800000100001020010004B3
:101B3000B125000870B5040005D0254680356868D9
:101B4000002802D006E0012070BD00202870204649
:101B500000F026F8242068602068016849084900E0
:101B60000160204600F04AFD0128EDD0A06A00285F
:101B700002D0204600F084FC206841680922D2028D
:101B800091434160206881682A22914381602068E6
:101B90000168012211430160204600F0D7FC70BDAE
:101BA00030B587B0044614216846FEF700FB236871
:101BB000264C002126480222A3421FD1244B403349
:101BC0001D68540325431D601B6823400593436B28
:101BD00013434363406B029110400590C020039172
:101BE00004910090019269461A48FFF7CDF800224F
:101BF00011461B20FFF7EAF91B2022E0164CA342F6
:101C000021D1C46B01235B041C43C463C46B1C401F
:101C10000594446B01231C434463406B02911840BC
:101C200005900C20009003910520049301926946D1
:101C30000007FFF7A9F8002211461C20FFF7C6F99C
:101C40001C20FFF7B7F907B030BD00000038014095
:101C5000001002400004005000440040FFB5074659
:101C600004468037B86885B00E4620287CD1002E07
:101C70000CD00798002809D00120A16800038142F8
:101C800007D12069002804D1F00702D0012009B053
:101C9000F0BD3878012867D0012038700020F86046
:101CA0002221B960E066FFF729F904902546403506
:101CB0000798A8830798E8830121A0680903FF22F9
:101CC000884204D12369002B0BD1284A09E000285F
:101CD00017D001221207904218D12269002A13D08E
:101CE0003F222A8492B20292884202D120690028BF
:101CF0000ED001960026002038700298C0B20390E2
:101D000024E02369002BECD07F22EAE70022E8E7F9
:101D100000200190EFE70898009000222021204643
:101D2000049B00F073FD002801D00320AFE7019869
:101D30000028206812D0416A039801400198017080
:101D40000198401C0190E88B401EE883E88B002836
:101D5000E1D12020B860002099E705E0406A0299AF
:101D600008403080B61CEEE7022090E7FF0100003B
:101D7000FFB5064604468036706883B00D462028BD
:101D800060D1002D0CD00598002809D00120A16851
:101D90000003814207D12069002804D1E80702D05E
:101DA000012007B0F0BD307801284BD00120307001
:101DB0000020F06021207060FFF7A0F80190274616
:101DC00040370598B8820598F8820120A168000381
:101DD000814202D12069002804D00295002500200C
:101DE000307015E000200290F9E7002280212046A3
:101DF00000F00CFD002818D10298002817D02168A7
:101E0000007888620298401C0290F88A401EF8828E
:101E1000F88A019B002806980090E6D10022402114
:101E2000204600F0F3FC002808D00320B9E72888FA
:101E30002168C005C00D8862AD1CE6E720207060F7
:101E40000020AEE70220ACE77047FEE7FFB507468B
:101E500087B01C4616461046FEF7C8F90390384670
:101E6000FEF7C4F902900898FEF7C0F901900299B4
:101E700003980125401801998022401810212170F3
:101E80001030C117490E0918CB09DB01C01AC3B2C3
:101E9000C811002800DD134363556D1C0028F0DCD9
:101EA0000020605504216D1C61554D226D1C62554A
:101EB00051226D1C625554226D1C62556D1C625579
:101EC0006D1C6155C0216D1C61556D1C60553C2019
:101ED0006D1C60556846407B6D1C60556846007BF4
:101EE0006D1C60556D1C60193146039AFEF746F96A
:101EF00003980299281800290EDD6946497A215471
:101F00006946401C097A2154451C60193946029AD9
:101F1000FEF734F902982818019900290EDD694668
:101F2000497921546946401C09792154451C60199E
:101F3000019A0899FEF722F9019828180BB0F0BD14
:101F4000FFB581B01D4617460198FEF74FF9009086
:101F50000298FEF74BF9064620A0029900F0B8FC63
:101F60000098002F02D08019001D01E08019801C0C
:101F70003021012429708022C117490E0918CB098C
:101F8000DB01C01AC3B2C811002800DD13432B5572
:101F9000641C0028F0DC68464078285568460078C4
:101FA000641C2855641C2819009A0199FEF7E6F86C
:101FB00000982418002F09D00E484178295501783F
:101FC000641C29550168491C641C016028193246AB
:101FD0000299FEF7D3F8A01905B0F0BD0D0A63739E
:101FE00074782E74616F62616F2E636F6D3A257322
:101FF0000D0A000030000020FFB581B01D461646D6
:102000000F460198FEF7F2F80090002E01D0012053
:1020100000E0002000994018001D002E01D0822110
:1020200000E0A221012429708022C117490E09185D
:10203000CB09DB01C01AC3B2C811002800DD13436D
:102040002B55641C0028F0DC002028550120641C5E
:10205000285568464078641C285568460078641CFA
:102060002855641C2819009A0199FEF787F80098F2
:102070002018002E01D02F54401C05B0F0BD0000E8
:10208000F0B587B014216846FEF791F82848426BF6
:1020900002210A434263426B0A400592426B0421CB
:1020A0000A434263426B0A400592416B012421437B
:1020B0004163406B1F4F2040032105902246890356
:1020C0003846FEF714FF1C4E05200122314600075A
:1020D000FEF70DFFA00300250090019469460395CB
:1020E00002943846FEF750FEE003694631C1694666
:1020F00038460395FEF748FE1020694631C1052099
:10210000694600070395FEF73FFE052000946946E7
:10211000000701950294FEF737FE052002956946F7
:102120000007009603950194FEF72EFE07B0F0BD60
:102130000010024000080050E218000010B51848D6
:1021400016490160E1214902416000218160C160BE
:1021500001618161C16101620C224162426181625F
:10216000FFF7E8FC002801D0FEF782FD00210C48B3
:10217000FFF788FB002801D0FEF77AFD0021084810
:10218000FFF75CFB002801D0FEF772FD0448FFF763
:1021900035FB002801D0FEF76BFD10BD0038014073
:1021A0001804002010B50D480B4901604B21C901EE
:1021B000416000218160C16001618161C161016292
:1021C0000C22416242618162FFF7B4FC002801D019
:1021D000FEF74EFD10BD000000440040A8040020A2
:1021E000FEE770B500242046B030C0B2002100F0F8
:1021F00096F80021022000F092F80021102000F053
:102200008EF800250121002000F089F86D1CEDB248
:10221000802DF7D3641CE4B2082CE4D370BD10B554
:102220000446B031C8B2002100F079F8200900213D
:10223000103000F074F82007000F0121084300213E
:1022400000F06DF810BD0000F8B515460E460746C3
:10225000FFF7E5FF0E490024A8014518285D01217C
:1022600000F05DF8641CE4B2102CF7D3761CF1B2D8
:102270003846FFF7D4FF00242819203000780121C8
:1022800000F04DF8641CE4B2102CF5D3F8BD00004A
:10229000A03F0008F7B5203A009800240D46D6B2BA
:1022A0007F2803D900208D1CEDB200902946FFF74E
:1022B000B6FF37010D4E3819305C012100F02FF8C0
:1022C000641CE4B2082CF6D36D1CE9B20098FFF749
:1022D000A6FF002438198019007A012100F01FF8A8
:1022E000641CE4B2082CF5D3FEBD0000B039000830
:1022F000F8B517460E46044600250CE03146204648
:10230000FFF7C8FF0834E4B2782C02D90024B61CC9
:10231000F6B26D1CEDB27A5D002AEFD1F8BDF8B5CA
:10232000012705263F0336070546002901D0012273
:1023300000E0002239463046FEF7D9FD0024002295
:1023400020213046FEF7D3FD280601D5012200E00A
:10235000002280213046FEF7CAFD012220213046AE
:10236000FEF7C5FD6806641C050EE4B2082CE6D332
:10237000012239463046FEF7BAFDF8BD7047704776
:1023800010B5FEF7C1FD10BD30B59DB038216846CF
:10239000FDF70DFF0025189519951A9528210EA80F
:1023A0001B95FDF704FF01204002FEF713FE0224F7
:1023B000E001039000944020059008200A908003DB
:1023C0000B90079400020C900894000104950D9066
:1023D00009956846FFF702F8002801D072B6FEE7BB
:1023E000072018A931C1022118A81B95FEF7F0FE9D
:1023F000002801D072B6FEE701200E900F950EA8BE
:10240000FEF70EFE002801D072B6FEE71DB030BD0B
:1024100001200249C00688607047000000ED00E01E
:10242000F0B513A106C985B00192009112A206CAA7
:10243000039202910446416E4034002915D0006891
:102440008168806809014D0F400F02AE315C6F4614
:10245000385CC000FDF74CFE6085785D715DC000A2
:10246000FDF746FE208505B0F0BD01206085F9E747
:102470000101010307010000080402040801010131
:1024800010B5018DC90707D001684A6801235B04B4
:102490009A43C36A1A434A60018D890707D50168C8
:1024A0004A6801231B049A43036B1A434A60018D57
:1024B000490707D501684A6801239B049A43436B87
:1024C0001A434A60018D090707D501684A6801234C
:1024D000DB039A43836B1A434A60018DC90607D513
:1024E0000268916801231B039943C36B19439160F0
:1024F000018D890607D501688A6801235B039A4329
:10250000036C1A438A60018D490612D503685A6824
:1025100001210905446C8A4322435A60426C8A4275
:1025200007D10268516803235B059943836C194303
:102530005160018D090607D501684A680123DB0453
:10254000C06C9A4302434A6010BD0000FEB50546C8
:10255000002680350446EE60FEF7D0FC019020682E
:102560000068124F000709D5012100970022490594
:102570002046019B00F04AF900280DD12068006830
:1025800040070BD501210097002289052046019BB9
:1025900000F03CF9002801D00320FEBD2020686037
:1025A000A860E6662E700020FEBD0000FFFFFF0160
:1025B00010B5806A002201464031CA83CA82FFF703
:1025C00086F910BD01680A68FF2321339A430A6027
:1025D00001688A68084B1A408A60C16E012904D1DB
:1025E00001680A6810239A430A60202288210A5051
:1025F0000021C16601677047FEFFFFEFF8B5044692
:10260000036880682169E5690843616900262943F8
:102610000843616E734A01431868734D28400843AC
:1026200018602168486803231B039843E368184334
:1026300048602168A069914201D0236A18438B68E1
:102640006A4D2B4003438B602068C16A636A0909A5
:1026500009011943C1626649236866488B420AD161
:1026600040698007800F09D001282CD0022828D08B
:10267000032816D113E060498B4201D1002111E0FB
:1026800093420ED141690320800201400AD001200B
:102690008002091A17D0091A13D0814201D10821EA
:1026A00000E010210120554D554FC00393423BD10E
:1026B00000290AD0022911D0042909D008297DD186
:1026C0000BE00221EEE70421ECE7FEF72DFE01E02E
:1026D000FEF73EFE050001D17AE00546606A400043
:1026E000395A28460091FDF703FD6768790079188B
:1026F000814269D83903814266D3002328461946AE
:10270000009AFDF70BFD020E09020302780811433F
:102710001818002251413A460023FDF7FFFC03211F
:102720000902411A374A4DE0E269824228D1002964
:1027300006D0022907D0042907D0082944D108E08F
:10274000FEF7F2FD03E0284603E0FEF701FE002855
:102750003ED0616A4900795AFDF7CAFC61684000C1
:102760004A088018FDF7C4FC80B20146264A103999
:10277000914229D8511C01400007400F084325E031
:10278000002906D0022907D0042907D008291BD127
:1027900008E0FEF7C9FD03E0284603E0FEF7D8FD98
:1027A000002815D0616A4900795AFDF7A1FC6168DB
:1027B0004A088018FDF79CFC80B200E004E0014666
:1027C000114A1039914201D9012601E02168C860FF
:1027D0002046012140304185018500202067606747
:1027E0003046F8BD00800040F369FFCFFFF4FF11D1
:1027F0000038014040100240004400400024F40032
:1028000060430008FFFC0F00EFFF0000FFB581B040
:1028100005460F46044680350A9E38E0701C36D0C7
:10282000FEF76CFB0499401AB04221D8002E1FD04D
:102830002068016849072AD5C069C043000526D42D
:1028400001202168C002086220680168FF22A132CD
:102850009143016020688168490849008160202017
:102860006860A860E86000202870032005B0F0BD13
:1028700020680168FF22A1329143016020688168CD
:1028800049084900816020206860A860EBE7206863
:10289000C1693846884305D0002103988142BDD0E4
:1028A0000020E3E70121F8E710B5034800F050F8F5
:1028B0000148FFF70DF810BD1804002010B50348BB
:1028C00000F046F80148FFF703F810BDA804002007
:1028D0000FB410B503AA0D48029900F011F90B4886
:1028E000FDF784FC0A49CA695206FCD50022074B51
:1028F00005E09C5C8C62CC696406FCD5521C82426B
:10290000F7D310BC08BC04B018470000180300201F
:102910000044004010B50D490A68136810200343B5
:1029200013600B681C68202214431C60096808624D
:10293000064990310B681C6804431C600B681C68D6
:1029400014431C600968086210BD000018040020D0
:10295000F8B5002569460D7000682B497D23DB0022
:1029600001262A4C884225D1294F3868C069C043C6
:1029700080060FD4012269463846FFF76FF9684692
:102980000178244A20781154401C2070A5803968B1
:10299000202008623868C169C943C90609D4A178F2
:1029A000002902D0A580A57000E0A6802570102126
:1029B0000162F8BD18498842FBD1154F903738683D
:1029C000C069C043800612D4012269463846FFF729
:1029D00045F968460178114A20781154401C20704E
:1029E0006078401C6070E580396820200862386893
:1029F000C169C943C906DCD4E178002902D0E58069
:102A0000E570D3E7E680D1E70038014016000020EA
:102A10001804002018010020004400401802002083
:102A200070B50546FF200C46F530FEF79BF92146B0
:102A30002846FEF781F8040004D0FD2C15D0FF2CA9
:102A400011D106E00CA202210020FFF751FC0EA2DA
:102A500005E009A202210020FFF74AFC0EA2022194
:102A60000020FFF745FC204670BD03A20221002094
:102A7000FFF73EFC0CA2F2E720202020202020209F
:102A8000202020202020200057494649205345542B
:102A900053534944204F4B005749464920434F4E1A
:102AA0004E454354204E4F0057494649204E6574C9
:102AB000776F726B204E4F000FB410B503A9044B13
:102AC000044A029800F024F910BC08BC04B018476E
:102AD0003D350008340000200FB410B504A9074BA1
:102AE00002AA039800F014F9044602A9002000F09D
:102AF000ABFC204610BC08BC04B0184749340008A1
:102B000037B514460846064B6A46214600F000F9E0
:102B100004466946002000F097FC20463EBD0000B8
:102B2000493400082021020C01D010211046020A6D
:102B300001D010460839020901D01046091F820849
:102B400001D01046891E420801D0881E7047081A1D
:102B5000704700008307FF22DB0E9A408907090EA9
:102B60009940002808DB830809489B001B18186857
:102B700090430843186070470007000F0838830827
:102B800004489B001B18D86990430843D8617047DC
:102B900000E400E000ED00E002E008C8121F08C1F8
:102BA000002AFAD170477047002001E001C1121FCE
:102BB000002AFBD170470000F0B51FB484B007981D
:102BC0000699020D014314D04A484B491018484356
:102BD00005140F9801280E981CD0281A401C0024B8
:102BE000464E4749009401910290002814DA47426A
:102BF00027E00F98012443A3012808D0002104985E
:102C00000F9A84600360C260416009B0F0BD0E9805
:102C1000C143F4E74042E2E7074612E0F80707D075
:102C20002246334601990098FDF7BAFB01910090C6
:102C30002246334610461946FDF7B2FB04460E46BF
:102C40007F10002FEAD10298019B0028009A079973
:102C5000069802DAFDF7A4FB01E0FDF709FC044643
:102C60000E460022284BFDF79BFC03D80020C043F2
:102C7000014607E00022254B20463146FDF7DEFAEB
:102C8000FDF76EFC102409E0002C0ADB0A22002369
:102C9000FDF744FA059B30321A55641E02460A437A
:102CA000F2D11122641C059B121B1C190F9B012BD6
:102CB00003D0012308430ED10AE0084304D01120B9
:102CC0000E9000200F9084E70E98151A6D1E0BE0F1
:102CD0000E98824202DD00236D1C03E0824201DA7D
:102CE00000236D1E002BEED004980F998260C16006
:102CF00030C08AE701FCFFFF104D000000002440B7
:102D00000000F03F300000000000F0430000E03F12
:102D1000FFB597B00646002518E2252877D1002494
:102D20002746FD49049400E00443761C32780120D4
:102D3000203A90400842F7D130782A280ED002225B
:102D4000307801463039092916D804990A235943A5
:102D5000303940181443761C0490F1E7189802C8E3
:102D600004911890002904DA0120400304434842EA
:102D7000049002200443761C30782E2814D10420BD
:102D800004437078761C2A2809D11898761C80C8CC
:102D9000189009E00A214F43303FC719761C30785C
:102DA000014630390929F5D930786C2810D006DC75
:102DB0004C281AD068280ED06A2817D104E074284D
:102DC00013D07A2812D110E00120400504430CE012
:102DD0000121090501E0032109050C4371788142B5
:102DE00003D1012000052418761C761C3078119040
:102DF00066280BD013DC58287DD009DC00287BD056
:102E00004528F6D04628F4D047281AD1A5E118E085
:102E1000632835D0642870D0652812D19DE17028D0
:102E20006CD008DC6728F1D069287BD06E280DD0E3
:102E30006F2806D1BAE073282ED0752871D0782873
:102E400059D01A9A199990476D1C7EE16002400F83
:102E5000022809D003280DD00428189801680DD045
:102E60000D60001D189070E11898EA1701680D6058
:102E70004A60F6E7189801680D80F2E70D70F0E7F8
:102E800018986A4601781172001D1890002050723F
:102E900002A80090012005E0189802C818900020B0
:102EA0000091C04361070DD5002101E00199491C43
:102EB0000191B94212DA8142F8DB009A515C002993
:102EC000F4D10BE0002101E00199491C01918142FC
:102ED000FADB019A0099895C0029F5D101990498DF
:102EE0001A9B471A21463846199A00F097FA019919
:102EF000401945180BE04FE02CE113E04EE000983C
:102F000000990078491C00911A9A199990470198E4
:102F1000401E0190401CF2D1214638461A9B199A56
:102F200010E137E00A200021009001916002410F7A
:102F3000022907D0189A01CA1892C2179446032989
:102F400008D00AE01898C01DC108C90005C9189129
:102F5000944607E000B2C2179446042902D140B259
:102F6000C1178C4600226146944506DA0A460021C4
:102F7000404291418C462D2102E0210504D52B21B0
:102F80006A461173012103E0E10701D02021F7E730
:102F9000029155E00A200AE0102008E0102000907D
:102FA0000021042004430191082703E008200021A8
:102FB000019100906002410F022907D0189A01CABE
:102FC000189200229446032908D008E01898C01DE2
:102FD000C108C90005C91891944603E080B20429CC
:102FE00000D1C0B200210291210729D51199702981
:102FF00006D0009A1021019B4A401A4305D00EE0EA
:1030000040216A461173012108E06146014306D060
:1030100030216A4611731199517302210291009A6D
:103020000821019B4A401A430AD16146014301D15C
:10303000610705D530216A46117301217F1E029177
:103040001199582904D035A10E910DA90D910DE0CB
:1030500037A1F9E76146019B009AFDF75FF80E9BE7
:103060008C469B5C0D9A521E0D9213706146014373
:10307000F0D10D9805A9081A20300190600703D5FA
:1030800001200004844300E001270198874201DD0C
:10309000381A00E0002001990090411802980918A0
:1030A0000498401A0490E00306D421461A9B199A0A
:1030B000049800F0B3F94519002706E003A81A9A0E
:1030C000C05D199990476D1C7F1C02988742F5DB03
:1030D000E0030CD521461A9B199A049800F09EF93A
:1030E000451904E01A9A3020199990476D1C0099EF
:1030F000481E00900029F5DC08E00D980D99007835
:10310000491C0D911A9A199990476D1C0199481EF6
:1031100001900029F1DC63E10928010030313233EC
:103120003435363738396162636465660000000003
:1031300030313233343536373839414243444546ED
:103140000000000000F05AF94519761C307800287C
:1031500000D0E2E528461BB0F0BD600700D406278A
:103160001898C01DC108C90048680A680831C30F13
:10317000DB071891190001D09CA108E0210501D5B9
:103180009BA104E0E10701D09AA100E09AA14300CD
:1031900011985B08109165280CD006DC452809D0F1
:1031A00046281DD0472841D141E0662818D067281D
:1031B0003CD13CE00021112F01DB112000E0781C04
:1031C0000191009008A911A8FFF7F6FC1399059149
:1031D0000021119A15927F1C12980197009150E0DE
:1031E0000120C00703900120019008A9009711A8B1
:1031F000FFF7E2FC139A149905920022119B0092AA
:1032000012981593059A0192002901D0104602E008
:10321000791C40180190381A01D5019804E0404209
:10322000401E0090781C0190C01B029043E0012FCB
:1032300000DA01270021112F01DD112000E03846BE
:103240000191009008A911A8FFF7B6FC1399059108
:10325000119A0021129815920091019721070CD420
:103260000599B94201DB019900E00191012904DDD2
:10327000159A491E515C302906D0B84201DA011D69
:1032800005DA0121029115E00199491EEDE70028B8
:1032900005DC0099411800910199091A03E0019A8F
:1032A000411C914200DD01910099401A401C02909E
:1032B0000120C0070390200706D40299019881429B
:1032C00002DB0020C043029000206946C87707AFA8
:1032D000012103980337C907884224D002201190A6
:1032E0002B201290039800280CDA404203902D20E6
:1032F000129007E00A210398FCF7FAFE30317F1E96
:10330000039039701199481E11900029F2DC03983E
:103310000028EFD1791E12980870307820210840DB
:103320004530BF1E387006A8C01BC01D0390109802
:103330000078002800D00120019941180298C01798
:103340000918039809180498401A401E0490E003D5
:1033500006D421461A9B199A049800F05FF8451983
:1033600010980078002803D01A9A199990476D1C7C
:10337000E00324D521461A9B199A049800F04EF8D0
:1033800045191CE00098002807DB00990598884241
:1033900003DD1598405C199901E0199930201A9ABB
:1033A000904700986D1C401C00900298401E0290AF
:1033B000002804D11A9A2E20199990476D1C019962
:1033C000481E01900029DDDC05E038781A9A7F1C40
:1033D000199990476D1C0399481E03900029F4DC4D
:1033E00021461A9B199A0498ACE600002D000000B3
:1033F0002B0000002000000000000000F8B504468B
:1034000000251E461746880404D405E039462020CE
:10341000B0476D1C641EF9D52846F8BDFFB50446BB
:10342000002581B01E46C80301D5302700E02027C3
:10343000880404D505E038460399B0476D1C641E26
:10344000F9D5284605B0F0BD0A68531C0B60107012
:1034500070470000F8B505252D07012202212846F6
:10346000FDF745FD002240212846FDF740FD0022E2
:1034700010212846FDF73BFDFF242D342046FDF7A3
:1034800071FC2046FDF76EFC012210212846FDF755
:103490002EFD01251A4EED03002229463046FDF788
:1034A00026FD6F10002239463046FDF720FD2046EC
:1034B000FDF758FC012229463046FDF718FD012290
:1034C00039463046FDF713FD2046FDF74BFC002240
:1034D00029463046FDF70BFD002239463046FDF700
:1034E00006FD2046FDF73EFC012229463046FDF749
:1034F000FEFC012239463046FDF7F9FCF8BD00001C
:103500000008005070B50B4C002265780A4B0A7019
:103510001E78C12E04D007E09E5C8654521CD2B2A5
:10352000AA42F9D360780870FF2101310248FCF704
:103530003EFE70BD160000201802002013B5044B9B
:10354000012269460348FEF713FC00981CBD0000E9
:10355000FFFF000018040020FDF7DEFCFEF714FF5B
:10356000FEF78EFDFEF7EAFDFEF71CFEFFF7D2F92F
:10357000FDF7AEF8FEF735FE71A200211020FEF730
:10358000B7FE072200213020FEF75EFE0822002150
:103590004020FEF759FE092200215020FEF754FE7C
:1035A00069A200216420FEF7A3FEFFF753FF052662
:1035B000360702213046FDF795FC012803D0022191
:1035C00062A2002034E003216448FDF74DF9FF209A
:1035D0002D30FDF7C7FB6149891E481DFFF792FF9B
:1035E00018215F48FCF7E3FD5EA202210020FEF7F0
:1035F0007FFE5A4D0324ED1C2A5D5CA15848FFF75D
:103600006BFA2001001FC0B2554A0221FEF770FE7E
:10361000641C052CF0DB57A202215220FEF768FE45
:103620002A7A52A14E48FFF757FA4D4A02216820E4
:10363000FEF75EFE002202213046FDF758FC7D2594
:10364000ED002846FDF78EFBFF2101314A48FCF7CB
:10365000AEFD4A490020088049A14CA0FFF7E0F9DF
:103660000446C820FDF77EFB002CF5D14E4E01210B
:103670000022C9033046FDF73AFC384CA41E06E090
:103680004AA14CA0FDF710F92846FDF76BFB6078C6
:103690000028F5D10121002289033046FDF727FCDF
:1036A00048A202210020FEF723FE4AA202210020A8
:1036B000FEF71EFE012565704AA24FA150A000F042
:1036C000FBF86078002836D04FA0FFF701F960784A
:1036D0000028F1D1657051A000F02CF96078002825
:1036E0002BD051A0FFF7F4F860780028F3D135A271
:1036F0000221FEF7FDFD52A202210020FEF7F8FD97
:1037000053A0FFF7E5F87D252D012846FDF72AFB9C
:103710002CA202210020FEF7EBFD55A20221002081
:10372000FEF7E6FD60780028EFD155A255A13BA039
:10373000FDF750F9E9E754A0C7E758A0D2E7000029
:103740004C6F5261000000005B425D004D312C2047
:103750004D30203A202030202C2030000600002060
:1037600000010020416464723A00000025303258A4
:103770000000000043683A00180100201A000020F1
:103780003138323339373738313031005769726563
:103790006C657373205765616B2D6C696E6B204E81
:1037A0006574776F726B0000000800503138383351
:1037B000000000003139322E3136382E33312E31AF
:1037C0003231000020202020202020202020202016
:1037D00020202000434F4E4E45205345525645521F
:1037E000204F4B006D7174746A735F3331653863B9
:1037F00036326561310000007075626C69630000EB
:1038000061646D696E000000456E746572204D51F3
:103810005454204572726F72210D0A0074657374DE
:10382000746F70696300000053756273637269702E
:1038300074696F6E206661696C6564210D0A000011
:10384000524547495354455220454D51204F4B0056
:103850002A2A2A434F4E4E4543542053455256453B
:103860005220535543434545442A2A2A0D0A000055
:1038700053656E6420454D51204D515454202E0007
:103880003434000033330000456E746572204D51AE
:103890005454204F4B210D0A0000000053756273F1
:1038A0006372697074696F6E2073756363656564B4
:1038B0006564210D0A000000F0B5194DC1B0002368
:1038C0002B6002246B46FEF7C1FA82B228606423A3
:1038D00069461448FEF74CFA134D144E15E01D27A7
:1038E00028783178884208D168787178884204D184
:1038F0000F490020087041B0F0BD6420FDF732FA96
:1039000038467F1EFFB20028EAD12046641EE4B28A
:103910000028E4D10648012101700846EBE70000C9
:10392000000000201804002018010020D8430008DF
:1039300005000020F0B5C1B00027184D02246B46E9
:10394000012239462F60FEF757FB82B228606423BC
:1039500069461348FEF70CFA124D11E01D26124875
:1039600029780278914203D16978407881420ED05B
:103970006420FDF7F7F93046761EF6B20028EED146
:103980002046641EE4B20028E8D1002C04D0074889
:103990000770002041B0F0BD0120FBE700000020CF
:1039A0001804002018010020DC4300080500002056
:1039B0000000000000000000000000000000000007
:1039C000000000F80000000000000033300000009C
:1039D00000100C06100C06000000000000000000A3
:1039E00040C07840C0784000043F04043F04040015
:1039F000007088FC08300000001820FF211E000025
:103A0000F008F000E018000000211C031E211E0039
:103A100000F00888700000001E21232419272110BF
:103A200010160E0000000000000000000000000062
:103A3000000000E018040200000000071820400009
:103A400000020418E00000000040201807000000F9
:103A5000404080F0804040000202010F010202005D
:103A6000000000F0000000000101011F0101010041
:103A7000000000000000000080B0700000000000A6
:103A8000000000000000000000010101010101012F
:103A900000000000000000000030300000000000C6
:103AA000000000008060180400601806010000009B
:103AB00000E010080810E000000F102020100F0098
:103AC000001010F8000000000020203F202000001F
:103AD0000070080808887000003028242221300077
:103AE00000300888884830000018202020110E007F
:103AF0000000C02010F8000000070424243F240028
:103B000000F80888880808000019212020110E00FC
:103B100000E0108888180000000F112020110E000E
:103B200000380808C83808000000003F0000000006
:103B30000070880808887000001C222121221C00C7
:103B400000E010080810E0000000312222110F00F0
:103B5000000000C0C0000000000000303000000085
:103B600000000080000000000000806000000000F5
:103B7000000080402010080000010204081020000E
:103B80004040404040404000040404040404040059
:103B900000081020408000000020100804020100EE
:103BA000007048080808F0000000003036010000EE
:103BB000C030C828E810E0000718272423140B00A1
:103BC0000000C038E0000000203C2302022738201B
:103BD00008F8888888700000203F202020110E00FF
:103BE000C0300808080838000718202020100800F6
:103BF00008F808080810E000203F202020100F00DF
:103C000008F88888E8081000203F202023201800AA
:103C100008F88888E8081000203F20000300000012
:103C2000C03008080838000007182020221E0200B3
:103C300008F808000008F808203F210101213F2072
:103C4000000808F8080800000020203F202000009D
:103C500000000808F8080800C08080807F0000008D
:103C600008F888C028180800203F200126382000C6
:103C700008F8080000000000203F2020202030002D
:103C800008F8F800F8F80800203F003F003F200047
:103C900008F830C00008F808203F200007183F004F
:103CA000E01008080810E0000F10202020100F007E
:103CB00008F808080808F000203F21010101000071
:103CC000E01008080810E0000F18242438504F00B6
:103CD00008F8888888887000203F2000030C302076
:103CE00000708808080838000038202121221C00B4
:103CF000180808F8080818000000203F20000000FD
:103D000008F808000008F808001F202020201F00E5
:103D10000878880000C83808000007380E01000045
:103D2000F80800F80008F800033C0700073C03000F
:103D3000081868808068180820302C03032C302075
:103D40000838C800C83808000000203F20000000E4
:103D500010080808C838080020382621202018003C
:103D6000000000FE020202000000007F4040400010
:103D7000000C30C000000000000000010638C00048
:103D800000020202FE000000004040407F000000F0
:103D90000000040202020400000000000000000015
:103DA0000000000000000000808080808080808013
:103DB00000020204000000000000000000000000FB
:103DC00000008080808000000019242222223F20F1
:103DD00008F8008080000000003F112020110E0034
:103DE0000000008080800000000E112020201100C3
:103DF000000000808088F800000E112020103F2075
:103E00000000808080800000001F222222221300F8
:103E1000008080F0888888180020203F2020000043
:103E20000000808080808000006B949494936000F8
:103E300008F8008080800000203F210000203F2003
:103E400000809898000000000020203F2020000003
:103E5000000000809898000000C08080807F0000F3
:103E600008F8000080808000203F24022D302000D0
:103E7000000808F8000000000020203F202000007B
:103E80008080808080808000203F20003F20003F95
:103E90008080008080800000203F210000203F20A3
:103EA0000000808080800000001F202020201F0054
:103EB000808000808000000080FFA12020110E0083
:103EC0000000008080808000000E112020A0FF8074
:103ED000808080008080800020203F212000010021
:103EE0000000808080808000003324242424190076
:103EF000008080E0808000000000001F2020000083
:103F00008080000000808000001F202020103F20C3
:103F1000808080000080808000010E300806010053
:103F200080800080008080800F300C030C300F00F8
:103F300000808000808080000020312E0E31200023
:103F4000808080000080808080818E701806010053
:103F500000808080808080000021302C2221300071
:103F600000000000807C020200000000003F404092
:103F700000000000FF00000000000000FF00000043
:103F80000002027C800000000040403F0000000072
:103F9000000601010202040400000000000000000D
:103FA0001060028C0000FE9292929292FE0000003D
:103FB0000000000000000000000000000000000001
:103FC00004047E01407E42427E427E42427E4000A8
:103FD00000000000000000000000000000000000E1
:103FE0001060028C00FE929292929292FE0000006B
:103FF00000000000000000000000000000000000C1
:1040000004047E014448507F40407F5048444000B3
:1040100000000000000000000000000000000000A0
:104020000000FC242424FC252624FC242424040051
:104030000000000000000000000000000000000080
:1040400040308F80844C55252525554C808080003C
:104050000000000000000000000000000000000060
:104060004020D04C4344C8102000F80000FF00005E
:104070000000000000000000000000000000000040
:1040800000003F404448474070000F40807F0000E0
:104090000000000000000000000000000000000020
:1040A0000000FE92929292FE92929292FE00000086
:1040B0000000000000000000000000000000000000
:1040C000403801003C4040424C4040700508300000
:1040D00000000000000000000000000000000000E0
:1040E0004042CC0000E2222A2AF22A2622E00000E6
:1040F00000000000000000000000000000000000C0
:1041000080403F4080FF898989BF89A9C9BF80005D
:10411000000000000000000000000000000000009F
:10412000008060F8070004242425262424240400A9
:10413000000000000000000000000000000000007F
:10414000010000FF000000F94949494949F9000010
:10415000000000000000000000000000000000005F
:1041600080828282FE8282828282FE8282828000BD
:10417000000000000000000000000000000000003F
:10418000008040300F0000000000FF000000000031
:10419000000000000000000000000000000000001F
:1041A0000000181610D0B8979090909294100000CC
:1041B00000000000000000000000000000000000FF
:1041C0000020108C838041462810284443808000C2
:1041D00000000000000000000000000000000000DF
:1041E0001010D0FF901000FC24E4242223E20000F1
:1041F00000000000000000000000000000000000BF
:10420000040300FF0083601F8041261826418000C0
:10421000000000000000000000000000000000009E
:10422000008060F807404848E85F48484840400040
:10423000000000000000000000000000000000007E
:10424000010000FF0000020B1222D20A060000004B
:10425000000000000000000000000000000000005E
:104260000000FC04D4545454D4047F84C5360400A4
:10427000000000000000000000000000000000003E
:104280008866010063828292AB8482C10224CF00DF
:10429000000000000000000000000000000000001E
:1042A00080809E9292929EE0809EB2D2929E8000EA
:1042B00000000000000000000000000000000000FE
:1042C0000808F4949292F10001F2929494F8080094
:1042D00000000000000000000000000000000000DE
:1042E00090523410FF10345280708F0808F8080084
:1042F00000000000000000000000000000000000BE
:10430000829A566322528E008040330C33408000E4
:10431000000000000000000000000000000000009D
:104320001010FF109000FE929292F292929E8000E6
:10433000000000000000000000000000000000007D
:1043400042827F0180601F00FC44474444FC00001F
:10435000000000000000000000000000000000005D
:10436000010002000400060008000A000C00100012
:10437000200040008000000100000000000000005C
:10438000000000000000000000000000000000002D
:10439000000000000000000001000000020000001A
:1043A00003000000040000000600000007000000F9
:1043B00008000000090000000000000000000000EC
:1043C00000000000000000000100000002000000EA
:1043D0000300000004000000200200009003000021
:1043E000004400080000002038000000982B00085E
:1043F000384400083800002000090000A82B0008FD
:10440000000000000001C10009C10009FFFFFFFF1B
:10441000FFFFFFFFFF00000001010000000000009F
:104420000100000004000000000000000024F4006F
:08443000000000000000000084
:04000005080000C12E
:00000001FF
