:020000040800F2
:10000000C00A0020D5000008351D0008C71B0008E5
:1000100000000000000000000000000000000000E0
:10002000000000000000000000000000871E000823
:100030000000000000000000851E0008891E000866
:10004000E7000008E7000008E7000008E7000008F4
:10005000E7000008E7000008E7000008E7000008E4
:1000600000000000E7000008E7000008E7000008C3
:10007000E7000008E7000008E7000008E7000008C4
:10008000E7000008E7000008E7000008E7000008B4
:1000900000000000E7000008E7000008E700000893
:1000A000E7000008E7000008E7000008B1230008A7
:1000B000C5230008E7000008000000000000000061
:1000C0000348854600F076FA00480047D53100081D
:1000D000C00A00200448804704480047FEE7FEE7C6
:1000E000FEE7FEE7FEE7FEE7191F0008C100000873
:1000F00030B50B46014600202022012409E00D46C0
:10010000D5409D4205D31D469540491B2546954047
:1001100040191546521E002DF1DC30BDF0B51FB45C
:100120000646002082B005464024019100901BE065
:10013000019922460F46304600F064F8049A059B68
:10014000801A994110D310461946224600F04AF809
:10015000361A8F410197224601200021009F00F0AE
:1001600041F838184D4100902046641E0028DFDC1D
:10017000019B00982946324607B0F0BD03460B4369
:100180009B0703D009E008C9121F08C0042AFAD24D
:1001900003E00B780370401C491C521EF9D27047D3
:1001A000D2B201E00270401C491EFBD2704700220F
:1001B000F6E710B513460A4604461946FFF7F0FF66
:1001C000204610BD421C0178401C0029FBD1801A3A
:1001D000704703460A780270401C491C002AF9D176
:1001E0001846704710B5202A04DB0146203A91409A
:1001F000002010BD914020239C1A0346E340194380
:10020000904010BD10B5202A04DB0846203AD040AB
:10021000002110BD0B46D340D0402024A21A9140AB
:100220000843194610BD0000F0B50746084658407F
:1002300087B0C00F049048000E4659004008490896
:10024000BC1A884105D2384631461E4617460B4631
:1002500002465800400810434CD0300D0390400532
:100260005900400D490D0590401A0290402872DA5D
:1002700018030121000B090508430190049800921E
:10028000002805D001995242002088410092019037
:10029000029840210A1A01990098FFF7A3FF05462A
:1002A0000C466B4607CB00F097F9C0197141039AD1
:1002B0000E0D0023D71756401A467A40164344D0F5
:1002C000049A002A2DD0029A012A039A15DC1205FD
:1002D000C01A914101263605001C7141D20F059EBE
:1002E000D2070093019202962A46234600F094F921
:1002F00007B0F0BD38463146FAE71605224A0F46E8
:10030000B218C01AB74101210905001C4F4100185D
:100310007F41114618187941E20F10436D1964416D
:1003200013E0E2076D0815436408C2071443039AFB
:1003300001261205C01A91413605001C7141CE07F5
:10034000400830434908C01851412A46234600F06E
:1003500056F9CDE7FFE7049801224000C117121AB1
:1003600000238B4104983146C417381AA141EEE7A7
:1003700030B40124E407634030BC55E730B40124B5
:10038000E407614030BC4FE70000E0FFF0B51FB468
:1003900088B00B990998002448400999C00F49007A
:1003A00049080991C0070B990090490049080B9131
:1003B00009990898A64608431CD00B990A98084347
:1003C00018D0099801244000420D4800410D0998B9
:1003D00024050003000B204309900B980003000B39
:1003E00020430B9050181C494018002201901446DD
:1003F000104605E0002001460DB0F0BD032801DAEB
:10040000034600E003239C46C11A0AAE0AE05F00DF
:1004100008ADED5B4F00F75B7D430027AA187C41D8
:10042000491C5B1E6145F2DD410004AB5A522104B8
:10043000120C0A43240C401C0828DFDB01980290B0
:100440000099704601910090059B049A07990698BF
:1004500000F0E2F8D0E700000DFCFFFFF0B50C461D
:100460005C4085B0E40FE40703944C000026640868
:1004700059009446490802460296224321D062461A
:100480000A431ED06200570D4A000E032303550D88
:10049000012402462C492405781B1B0B360B4018FF
:1004A00023432643614600901C46501AB44103D3AF
:1004B0000098401C009002E0921800985B410028D0
:1004C00003DA0020014605B0F0BD00200121090536
:1004D0000746864611E064461D46141BB54106D307
:1004E0006546521BB341744607430C43A646CD07ED
:1004F00040084908284392185B4105460D43EAD15C
:100500001046184313D060461946504071400843C6
:1005100006D06046101AB34106D20122002306E03D
:1005200000220123DB0702E00122D243531000988E
:1005300074460105381C6141029C039D0019694104
:1005400000F05DF8BFE70000FD0300004A0009036A
:100550000123090B1B0519430A4B10B5520D9A4292
:1005600002DA0020014610BD064B34339A4203DC08
:100570009A1AFFF747FE10BD034BD218FFF732FE61
:1005800010BD0000FF030000CDFBFFFF10B50029E8
:1005900004DB0124E40740428C412146002B04DBAC
:1005A0001C460123DB075242A341994200D19042ED
:1005B00010BD0000064C0125064E05E0E36807CC9F
:1005C0002B430C3C98471034B442F7D3FFF77CFD23
:1005D000484700086847000810B5202A06DBCB17FB
:1005E0000846203A1041C1170B4306E00B46134161
:1005F000D0402024A21A91400843194610BD10B5DE
:10060000002B08DA0024401C614192185B411A4318
:1006100001D14008400010BDF0B51FB482B00546BE
:100620000C0003D0084601F0BDFF02E001F0BAFF64
:1006300020300246009021462846FFF7D3FD049B58
:10064000059A04460F4618431143084314D0184630
:1006500010431BD0009840210A1A18460599FFF74D
:10066000D1FD05460E46009A05990498FFF7BAFD9C
:10067000084305D0012004E02046394607B0F0BD0C
:100680000020C11705430E432C43374300990E98B1
:100690006305401A7905E40A00220C43FD0A0A307A
:1006A00002D500200146E9E70105101969410C9CBB
:1006B0000D9D00196941FFF7A2FFDFE7F0B564481F
:1006C00087B0416B022529434163406BEE0228400D
:1006D0000124052700963F0705900194694603957C
:1006E0000294384600F008FA2020009001946946F0
:1006F00003950294384600F0FFF9802000900194A1
:10070000694603950294384600F0F6F90122314615
:10071000384600F0A4FA01222021384600F09FFA62
:1007200001228021384600F09AFA0122D4022146A3
:10073000384600F094FA642000F0CCF900222146FB
:10074000384600F08CFA642000F0C4F901222146FA
:10075000384600F084FA0021AE2001F064FB00214D
:10076000022001F060FB0021102001F05CFB002161
:10077000402001F058FB0021812001F054FB0021B2
:10078000CF2001F050FB0021A12001F04CFB002103
:10079000C82001F048FB0021A62001F044FB002105
:1007A000A82001F040FB00213F2001F03CFB00218C
:1007B000D32001F038FB0021084601F034FB002172
:1007C000D52001F030FB0021802001F02CFB00211E
:1007D000D92001F028FB0021F12001F024FB0021A9
:1007E000DA2001F020FB0021122001F01CFB002187
:1007F000DB2001F018FB0021402001F014FB002158
:10080000202001F010FB0021022001F00CFB002150
:100810008D2001F008FB0021142001F004FB0021D1
:10082000A42001F000FB0021A62001F0FCFA002129
:10083000AF2001F0F8FA0021AF2001F0F4FA01F046
:100840007AFA0021084601F094FA07B0F0BD0000E2
:100850000010024010B50C4BDA695206FCD500229C
:1008600006E0845C9C62DC696406FCD5521CD2B252
:100870008A42F6D3054900204870FF21013104481F
:10088000FFF795FC10BD000000440040420000202E
:10089000A001002010B5044600F0FEFB0349FFF75D
:1008A00027FC6043401EFDD210BD000000093D0042
:1008B00010B52820FFF7EEFF0421044800F0CAF924
:1008C000002801D0002010BD012010BD0004005000
:1008D00000B5042285B00121084B0028009203D006
:1008E00000200291019003E0022001910291039007
:1008F0006946184600F000F905B000BD000400503C
:1009000010B50C4C0421204600F0A4F90028F9D0C1
:100910002820FFF7BFFF0421204600F09BF90028A4
:1009200006D00421204600F095F90028F9D10120D5
:1009300010BD00000004005070B5002425460126BB
:100940006006040EFFF7DCFF002800D034436D1C66
:10095000EDB2082DF4D3204670BD000070B500F054
:100960002DF8FFF7A5FF002822D0124C04212046C5
:1009700000F070F90028F9D00421204600F06AF94F
:100980000028F9D100250C4CFFF7D6FF60556D1CEF
:10099000EDB2052DF8D320786178E2784018A1787F
:1009A000891840182179884201D1012400E00024EF
:1009B000204670BD000400500000002010B500204B
:1009C000FFF786FF00220421044800F048F91920AF
:1009D00000F080F80120FFF77BFF10BD00040050FD
:1009E00072B6FEE7F0B5002808D0014620314A79FA
:1009F000022A05D00422C263002008710120F0BD44
:100A0000026813680E24A3431360426C1468FF232A
:100A100001339C4314600268146864086400146025
:100A20000C4A5568066C1C24264001242746B74012
:100A30003D435560826CC56C5560026D002A05D03F
:100A400015689D431560826D406D42604C710020B9
:100A50000871F0BD00000240F8B5002402462032C3
:100A60005179022903D00421C16301242DE00168DA
:100A70000B680E25AB430B6001680B685B085B00DD
:100A80000B60416C0B68FF250135AB430B601049CF
:100A90004D68066C1C231E4001231F46B7403D4392
:100AA0004D60816CC56C4D60016D002906D00E68EB
:100AB0001D02AE430E60416D856D4D605371002186
:100AC0001171816B002900D088472046F8BD0000D5
:100AD0000000024070B5044600F0C8F80546601CEE
:100AE00002D004480078241800F0C0F8401BA0424F
:100AF000FAD370BD4C000020FCB5002301259AE01C
:100B000022462C469C4022406FD04E68012E05D0D4
:100B1000022E03D0112E01D0122E16D18668032783
:100B2000B4465E00B646B7406646BE43B446CF689C
:100B30007646B7406646374387604668A6430C79D9
:100B4000E406E40F9C4034434460C6685F0003241D
:100B5000BC40A446A6438C68BC403443C4604C6887
:100B6000022C01D0122C14D1DC08A400241801940A
:100B7000266A5C07B646E60E0F24B4400096764619
:100B8000A643B6460C69009EB44076462643019CB7
:100B9000266204686646B4430E79B607B60FBE40B7
:100BA000264306604C68E40044D59E08254CB600F8
:100BB0003419A446246E9E07F60E0F27B740BC4397
:100BC00005273F07B84201D1002710E01E4FB84269
:100BD00001D101270BE01D4FB84201D1022706E0E9
:100BE0001B4FB84202D1032701E023E00527B7409D
:100BF000274364462766134E803634684F68944313
:100C0000FF0300D51443346074684F689443BF03F6
:100C100000D5144374600B4C26684F689643FF025E
:100C200000D51643266066684F689643BF0200D51C
:100C3000164366605B1C0A681446DA4000D05FE722
:100C4000FCBD0000001802400004005000080050E5
:100C5000000C00500069084000D001207047002AB5
:100C600001D081617047816270470000014880684F
:100C7000704700004C000020024881680278891803
:100C8000816070474C00002010B5084800240168BE
:100C9000821511430160204600F00AF8002801D0B7
:100CA000012401E000F028F8204610BD0020024099
:100CB00070B50F4E002431780546002915D07D20EF
:100CC000C000FFF715FA01460A480068FFF710FA5E
:100CD00000F03AFC002808D1042D06D20022294653
:100CE000401E00F02BF8756000E00124204670BD26
:100CF0004C0000205800002008B509480168012276
:100D00001143016000681040009005484038C26BF4
:100D100001040A43C263C06B0840009008BD000094
:100D200040100240002805DBC106C90E01208840A2
:100D3000014908607047000000E100E010B501F0D3
:100D400049FC10BD10B50F4C21680322520291439B
:100D500001432160C11FFF39FA390ED10A4806212B
:100D6000006848430949FFF7C3F9401C02E0002826
:100D700005D0401E61694905F9D4002010BD03204B
:100D800010BD0000007000405800002040420F00DD
:100D9000F8B5044600680026664D800358D56548BE
:100DA00000274038C06BC00009D462484038C26B8D
:100DB00001040A43C263C06B0840012700905E48EB
:100DC0000168821511430160FFF750FF009005E0B4
:100DD000FFF74CFF0099401A022825D856480068B2
:100DE000C005F5D5E8690321090208400FD0616A02
:100DF00081420CD0E86903210902EA698843012194
:100E000009040A43EA61EA698A43EA61E861C007C2
:100E10000FD0FFF72BFF009008E0FFF727FF0099A6
:100E2000411A4648814201D9032609E0E869800752
:100E3000F3D5E869032109028843616A0843E86140
:100E4000002F05D03B484038C26B01048A43C2637F
:100E50002078C00705D06869616880088000084371
:100E600068612078C00606D5686903218902884335
:100E7000A168084368612088800506D56869032158
:100E8000890488436169084368612088400506D564
:100E90006869032109058843A169084368612078CE
:100EA000800606D56869032109038843E168084381
:100EB00068612088400411D56869E1698000800874
:100EC000084368610121E0698907884206D1194811
:100ED0004038C168012212041143C16020688002B9
:100EE00010D5686901218905226A88431043686129
:100EF000206A884206D10F484038C1680122120694
:100F00001143C1602088000512D568690321890357
:100F10008843216908436861012120698903884267
:100F200006D104484038C168012212041143C1604F
:100F30003046F8BD401002400070004088130000A9
:100F4000F8B50F46060043D04D4D28684007400FC6
:100F5000B84213D22868C008C00038432860FFF7A1
:100F600085FE044605E0FFF781FE011B45488142EE
:100F700061D828684007400FB842F4D13068424C2D
:100F800081070DD5400704D5A06807210903084350
:100F9000A060A0680F2109028843B1680843A060DF
:100FA0003078C00732D0706801280AD002280BD0F0
:100FB00000280FD03449403103280ED0C969890771
:100FC00004E02168890301E021688901002906DB2A
:100FD0000120F8BD21684905F8E7096AEFE7A16833
:100FE000C908C9000143A160FFF740FE009006E078
:100FF000FFF73CFE0099411A224881421BD8A068A5
:10100000382108407168C9008842F1D1286840073A
:10101000400FB84217D91A480168C908C9003943B6
:101020000160FFF723FE054607E0FFF71FFE411BA7
:101030001448814201D90320F8BD114800684007D7
:10104000400FB842F1D13078400706D5A06807219B
:1010500009038843F1680843A06000F037F8A168ED
:101060003C2289091140094A515CC906C90EC84091
:101070000749086007480068FFF71AFEF8BD00003E
:10108000002002408813000000100240884600083B
:101090005800002050000020014800687047000000
:1010A000580000200648074900688968064A490434
:1010B000490F8900515CC906C90EC840704700003D
:1010C0005800002000100240C846000810B5204C0F
:1010D000A068204A8006400F16D0A0688006410F05
:1010E000501001290FD0A1688906490F022912D09A
:1010F000A0688006400F042823D0A0688006400F17
:10110000032821D0002010BD206801218004400F59
:101110008140104612E0E1688B07E1689B0F4906A9
:10112000490F491C032B00D01046FEF7E1FFE16890
:101130004904490E4843E168490F491CFEF7D8FFAE
:1011400010BD0120C00310BD7D20000210BD0000B5
:10115000001002400024F400F8B504007ED020788E
:101160003827C007EF4D002846D0A868E968384006
:101170008907890F102802D008280BD001E0032925
:1011800008D001206268000482420AD12968014324
:10119000296015E0286880032ED560680028DDD01E
:1011A0002AE0052301211B0489049A422A6802D1FE
:1011B0000A432A60EAE782432A6028688843286055
:1011C000606800280CD0FFF751FD064604E0FFF7E9
:1011D0004DFD801B642873D828688003F7D50BE089
:1011E000FFF744FD064604E0FFF740FD801B64283E
:1011F000F1D828688003F7D42078800769D5A868DB
:10120000E96838408A070721920FC902102802D0E6
:10121000002813D001E0022A10D0E068002846D050
:10122000286888432169084328602868FF21013124
:1012300008432860FFF71AFD06462CE02A6852058D
:1012400002D5E268002A89D06A687F231B029A438C
:1012500063691B021A436A60002800E08DE00ED12A
:101260002868884321690843286028680121800490
:10127000400F8140AC48FEF73BFFAC490860AC48EA
:101280000068FFF715FD002877D122E0FFF7EEFC9C
:10129000801B02289FD828684005F7D568687F2101
:1012A00009028843616909020843686011E02968FE
:1012B000FF20013081432960FFF7D8FC064605E096
:1012C00098E0FFF7D3FC801B022884D828684005EB
:1012D000F7D42078974E00072ED5A8688006400FD7
:1012E00003280AD0A0690028306A16D001210843DB
:1012F0003062FFF7BBFC07460BE0306A80071BD566
:10130000A06900289FD017E0FFF7B0FCC01B02289F
:1013100070D8306A8007F7D50EE040084000306290
:10132000FFF7A4FC074604E0FFF7A0FCC01B02285F
:1013300060D8306A8007F7D4207840076CD5A86859
:1013400000278006400F042818D0E86BC00008D49E
:10135000E96B012000070143E963E96B01400127C4
:10136000009175480168C90519D4016882151143B7
:101370000160FFF77BFC00900DE083E0F0698007DF
:101380004AD5A06800287DD046E0FFF76FFC0099A1
:10139000401A02282ED868480068C005F5D5A16813
:1013A000012910D004200529F16911D0490849000C
:1013B000F161F1698143F161A068002816D0FFF75F
:1013C00055FC00900EE0F06901210843F061F3E75D
:1013D0000143F161F7E7FFF749FC0099411A5748CB
:1013E00081426FD8F0698007F5D50EE0FFF73EFC2B
:1013F000009007E066E0FFF739FC0099411A4F487A
:1014000081425FD8F0698007F5D4002F04D0E86BE3
:10141000012109078843E863E06900287FD0A968B3
:101420008906490F022953D001263606022828686A
:101430000DD0B0432860E86880088000E860E86864
:101440003F490840E860FFF711FC04463CE0B04328
:101450002860FFF70BFC074604E0FFF707FCC01B02
:1014600002282FD828688001F7D4616A206AA26A0E
:101470000843E16A120211430843216B0843616B80
:10148000084300E049E0E9682E4A11400843E8605B
:10149000286830432860E868012109070843E860AC
:1014A000FFF7E4FB044604E0FFF7E0FB001B022823
:1014B00008D828688001F7D531E0FFF7D7FB001B7B
:1014C000022801D90320F8BD28688001F5D426E060
:1014D0000128F8D0E868226A8107890F91421CD15F
:1014E0007021626A0140914217D17F21A26A0902EC
:1014F00001401202914210D11F214904E26A0140C9
:1015000091420AD107214906226B0140914204D140
:10151000400F616B4007884201D00120F8BD0020D8
:10152000F8BD0000001002400024F4005800002024
:10153000500000204010024000700040881300005E
:10154000FFFFFEEE8C80C111094910B5401E884294
:1015500001D9012010BD074C60610321081F01F073
:1015600039F80020A06107202061002010BD000094
:10157000FFFFFF0000E000E010B5014680310A786F
:10158000012A15D001220A7024224A6002681368D9
:101590001468640864001460012252079343002217
:1015A000426600680360202048600A70104610BD43
:1015B000022010BD7047704770B504460546803460
:1015C000207801281AD0012020702420606028682B
:1015D0000668026852085200026028688268072381
:1015E0005B069A430A438260284600F09DFC286807
:1015F0000660202060600020207070BD022070BD59
:1016000070B50446054680342078012819D00120A1
:101610002070242060602868066802685208520022
:10162000026028688268D200D2080A438260284695
:1016300000F07AFC2868066020206060002020709E
:1016400070BD022070BD704770477047F8B50368E1
:101650000446D96918689A68914D0E462E40254671
:101660008035002E6CD08F4E8F4F16400740374389
:101670007FD0CF0706D0C70504D501271F62EB68CE
:101680003B43EB608B0708D5D30706D027680223BE
:101690003B62EB6804273B43EB604B0708D5D3075D
:1016A00006D0276804233B62EB6802273B43EB60CC
:1016B0000B0709D520230340334305D026680823B0
:1016C0003362EE681E43EE600B0509D5430107D572
:1016D00001232668DB023362EB6820263343EB608C
:1016E000EB68002B3AD089060AD520210840C905AD
:1016F0000A40104304D0216F002901D020468847BA
:10170000E86821688968490602D4282108422AD05D
:10171000204600F0DBFC2068816849061FD58268FE
:1017200040218A438260E06F002818D05F498163BE
:10173000E06FFFF791F9002810D0E06F816B0CE0AB
:101740008E0616D5012720263F07064017403E4348
:101750000FD0216F7FE00CE020468847F8BD20467F
:10176000FFF773FFF8BD2046FFF76FFF0020E8602A
:10177000F8BDE66E012E59D1CE0657D5C60655D511
:1017800010221A62206881682646490640360029E0
:101790002BDAE36F196849680904090CE8D0B78BA4
:1017A0008F42E5D9F18319680968890618D4016860
:1017B00013019943016020688168490849008160EC
:1017C000206881684023994381602020A860002020
:1017D000E0662068016891430160E06FFFF702F95D
:1017E000B08BF18B401A81B21CE0B18BF38BC91A1C
:1017F000F38B89B2002BBBD00029B9D00368FF2638
:101800002136B343036020688368264EF643334095
:1018100083602020A8600020E066206720680368BD
:10182000934303602046FFF7C5FEF8BDCE0208D5FE
:10183000560206D50120000518622046FFF704FF76
:10184000F8BD0E060BD501278026FF0506403A405D
:10185000164304D0616F002900D07DE7F8BD4A0629
:101860000DD542060BD51A68204640218A431A60DE
:10187000202169600021616700F0A4F9F8BD0A0227
:1018800005D5420003D52046FFF7DDFEF8BDC901AE
:10189000FCD50028FADA2046FFF78DFEF8BD0000DF
:1018A0000F0800000100001020010004B92000080A
:1018B00070B5040005D0254680356868002802D040
:1018C00006E0012070BD00202870204600F026F8B8
:1018D00024206860206801684908490001602046AA
:1018E00000F010FC0128EDD0A06A002802D02046AC
:1018F00000F04AFB206841680922D202914341600E
:10190000206881682A229143816020680168012251
:1019100011430160204600F09DFB70BD30B587B0DB
:10192000044614216846FEF742FC2368264C002139
:1019300026480222A3421FD1244B40331D68540382
:1019400025431D601B6823400593436B134343638A
:10195000406B029110400590C020039104910090CB
:10196000019269461A48FFF7C7F8002211461B206A
:10197000FFF7E4F91B2022E0164CA34221D1C46BEF
:1019800001235B041C43C463C46B1C400594446B7B
:1019900001231C434463406B0291184005900C20C6
:1019A0000090039105200493019269460007FFF718
:1019B000A3F8002211461C20FFF7C0F91C20FFF7F6
:1019C000B1F907B030BD00000038014000100240FE
:1019D0000004005000440040FFB50746044680372D
:1019E000B86885B00E4620287CD1002E0CD0079810
:1019F000002809D00120A1680003814207D1206995
:101A0000002804D1F00702D0012009B0F0BD3878D9
:101A1000012867D0012038700020F8602221B960C9
:101A2000E066FFF723F90490254640350798A88320
:101A30000798E8830121A0680903FF22884204D1A6
:101A40002369002B0BD1284A09E0002817D0012276
:101A50001207904218D12269002A13D03F222A840B
:101A600092B20292884202D1206900280ED00196DB
:101A70000026002038700298C0B2039024E0236949
:101A8000002BECD07F22EAE70022E8E7002001905B
:101A9000EFE708980090002220212046049B00F0E8
:101AA00039FC002801D00320AFE701980028206806
:101AB00012D0416A03980140019801700198401CBE
:101AC0000190E88B401EE883E88B0028E1D12020BC
:101AD000B860002099E705E0406A0299084030802C
:101AE000B61CEEE7022090E7FF010000FFB50646B6
:101AF00004468036706883B00D46202860D1002DE2
:101B00000CD00598002809D00120A168000381426B
:101B100007D12069002804D1E80702D0012007B0CE
:101B2000F0BD307801284BD0012030700020F060EB
:101B300021207060FFF79AF80190274640370598FA
:101B4000B8820598F8820120A1680003814202D181
:101B50002069002804D0029500250020307015E08F
:101B600000200290F9E700228021204600F0D2FBFD
:101B7000002818D10298002817D0216800788862C0
:101B80000298401C0290F88A401EF882F88A019B55
:101B9000002806980090E6D100224021204600F05F
:101BA000B9FB002808D00320B9E728882168C005C0
:101BB000C00D8862AD1CE6E7202070600020AEE713
:101BC0000220ACE77047FEE7F0B587B01421684605
:101BD000FEF7EDFA2A48416B022529434163416B28
:101BE00029400591416B042631434163416B3140EB
:101BF0000591416B012421434163406B0321204047
:101C00000590224689031F48FFF729F80520012285
:101C10001D490007FFF723F8A00300270090019457
:101C20006946039702941748FEF766FFE00369468A
:101C300091C1694613480397FEF75EFF05200094A3
:101C40006946000701970294FEF756FF0E48694661
:101C500091C10520694600070397FEF74DFF0B4F22
:101C6000012204213846FEF7FAFF019469463846FE
:101C7000009603950294FEF73FFF07B0F0BD000009
:101C80000010024000080050E2180000000400505C
:101C900010B5184816490160E12149024160002150
:101CA0008160C16001618161C16101620C22416298
:101CB00042618162FFF7FCFD002801D0FEF790FE33
:101CC00000210C48FFF79CFC002801D0FEF788FE9D
:101CD00000210848FFF770FC002801D0FEF780FEC5
:101CE0000448FFF749FC002801D0FEF779FE10BD3B
:101CF00000380140A003002010B50D480B490160D9
:101D00004B21C901416000218160C1600161816195
:101D1000C16101620C22416242618162FFF7C8FD2C
:101D2000002801D0FEF75CFE10BD0000004400401A
:101D300030040020FEE770B500242046B030C0B269
:101D4000002100F070F80021022000F06CF8002162
:101D5000102000F068F800250121002000F063F851
:101D60006D1CEDB2802DF7D3641CE4B2082CE4D3D3
:101D700070BD10B50446B031C8B2002100F053F870
:101D800020090021103000F04EF82007000F01213B
:101D90000843002100F047F810BD0000F7B5203AD5
:101DA000009800240D46D6B27F2803D900208D1C50
:101DB000EDB200902946FFF7DCFF37010D4E3819D0
:101DC000305C012100F02FF8641CE4B2082CF6D33B
:101DD0006D1CE9B20098FFF7CCFF00243819801978
:101DE000007A012100F01FF8641CE4B2082CF5D33E
:101DF000FEBD0000C03C0008F8B517460E4604467C
:101E000000250CE031462046FFF7C8FF0834E4B255
:101E1000782C02D90024B61CF6B26D1CEDB27A5DA6
:101E2000002AEFD1F8BDF8B5012705263F03360794
:101E30000546002901D0012200E000223946304643
:101E4000FEF70DFF0024002220213046FEF707FF99
:101E5000280601D5012200E0002280213046FEF74D
:101E6000FEFE012220213046FEF7F9FE6806641CC2
:101E7000050EE4B2082CE6D3012239463046FEF7BF
:101E8000EEFEF8BD7047704710B5FEF7F5FE10BDC9
:101E900030B59DB038216846FEF789F900251895C0
:101EA00019951A9528210EA81B95FEF780F9012097
:101EB0004002FEF747FF0224E00103900094402017
:101EC000059008200A9080030B90079400020C9064
:101ED0000894000104950D9009956846FFF73CF9B8
:101EE000002801D072B6FEE7072018A931C10221EF
:101EF00018A81B95FFF724F8002801D072B6FEE75A
:101F000001200E900F950EA8FEF742FF002801D089
:101F100072B6FEE71DB030BD01200249C0068860E0
:101F20007047000000ED00E0F0B513A106C985B0D0
:101F30000192009112A206CA039202910446416ED8
:101F40004034002915D000688168806809014D0F70
:101F5000400F02AE315C6F46385CC000FEF7C8F837
:101F60006085785D715DC000FEF7C2F8208505B020
:101F7000F0BD01206085F9E70101010307010000C0
:101F8000080402040801010110B5018DC90707D03A
:101F900001684A6801235B049A43C36A1A434A6092
:101FA000018D890707D501684A6801231B049A43FC
:101FB000036B1A434A60018D490707D501684A68D7
:101FC00001239B049A43436B1A434A60018D09071E
:101FD00007D501684A680123DB039A43836B1A43E0
:101FE0004A60018DC90607D50268916801231B0369
:101FF0009943C36B19439160018D890607D5016828
:102000008A6801235B039A43036C1A438A60018D3B
:10201000490612D503685A6801210905446C8A43B0
:1020200022435A60426C8A4207D1026851680323F6
:102030005B059943836C19435160018D090607D5EF
:1020400001684A680123DB04C06C9A4302434A607A
:1020500010BD0000FEB50546002680350446EE6042
:10206000FEF704FE019020680068124F000709D5B2
:1020700001210097002249052046019B00F04AF902
:1020800000280DD12068006840070BD5012100977A
:10209000002289052046019B00F03CF9002801D070
:1020A0000320FEBD20206860A860E6662E70002038
:1020B000FEBD0000FFFFFF0110B5806A002201464F
:1020C0004031CA83CA82FFF7C0FA10BD01680A68AE
:1020D000FF2321339A430A6001688A68084B1A403B
:1020E0008A60C16E012904D101680A6810239A43ED
:1020F0000A60202288210A500021C16601677047CA
:10210000FEFFFFEFF8B50446036880682169E569C2
:1021100008436169002629430843616E734A0143FD
:102120001868734D284008431860216848680323E5
:102130001B039843E368184348602168A0699142F3
:1021400001D0236A18438B686A4D2B4003438B6090
:102150002068C16A636A090909011943C1626649B5
:10216000236866488B420AD140698007800F09D0F6
:1021700001282CD0022828D0032816D113E060496A
:102180008B4201D1002111E093420ED1416903201D
:10219000800201400AD001208002091A17D0091AD2
:1021A00013D0814201D1082100E010210120554DBA
:1021B000554FC00393423BD100290AD0022911D0C8
:1021C000042909D008297DD10BE00221EEE7042182
:1021D000ECE7FEF767FF01E0FEF778FF050001D1AD
:1021E0007AE00546606A4000395A28460091FDF7BA
:1021F0007FFF676879007918814269D83903814285
:1022000066D3002328461946009AFDF787FF020E81
:1022100009020302780811431818002251413A4676
:102220000023FDF77BFF03210902411A374A4DE0E5
:10223000E269824228D1002906D0022907D0042968
:1022400007D0082944D108E0FEF72CFF03E0284618
:1022500003E0FEF73BFF00283ED0616A4900795A4F
:10226000FDF746FF616840004A088018FDF740FF0F
:1022700080B20146264A1039914229D8511C0140AA
:102280000007400F084325E0002906D0022907D0A7
:10229000042907D008291BD108E0FEF703FF03E05B
:1022A000284603E0FEF712FF002815D0616A4900B6
:1022B000795AFDF71DFF61684A088018FDF718FF7D
:1022C00080B200E004E00146114A1039914201D980
:1022D000012601E02168C860204601214030418587
:1022E00001850020206760673046F8BD008000400F
:1022F000F369FFCFFFF4FF110038014040100240A6
:10230000004400400024F40070460008FFFC0F0069
:10231000EFFF0000FFB581B005460F46044680354B
:102320000A9E38E0701C36D0FEF7A0FC0499401AD3
:10233000B04221D8002E1FD02068016849072AD555
:10234000C069C043000526D401202168C00208628C
:1023500020680168FF22A1329143016020688168F2
:1023600049084900816020206860A860E86000207A
:102370002870032005B0F0BD20680168FF22A1325B
:1023800091430160206881684908490081602020EC
:102390006860A860EBE72068C1693846884305D0CB
:1023A000002103988142BDD00020E3E70121F8E736
:1023B00010B5034800F058F80148FFF747F910BD81
:1023C000A003002010B5034800F04EF80148FFF7C5
:1023D0003DF910BD300400200FB4F8B507AA0F482E
:1023E000069900F0CDF80D48FDF7ECFE0C4D0646C1
:1023F000E8694006FCD50024084F09E0395D09A0D2
:1024000000F09AF8385DA862E8694006FCD5641CC3
:10241000B442F3D3F8BC08BC04B01847A0020020B3
:1024200000440040253032782000000010B50D49EE
:102430000A6813681020034313600B681C6820228D
:1024400014431C6009680862064990310B681C68D7
:1024500004431C600B681C6814431C600968086214
:1024600010BD0000A0030020F8B5002569460D70DE
:1024700000682B497D23DB0001262A4C884225D1A8
:10248000294F3868C069C04380060FD401226946CD
:102490003846FFF7A1FA68460178244A207811549B
:1024A000401C2070A5803968202008623868C16906
:1024B000C943C90609D4A178002902D0A580A57016
:1024C00000E0A680257010210162F8BD18498842FD
:1024D000FBD1154F90373868C069C043800612D4CD
:1024E000012269463846FFF777FA68460178114AB3
:1024F00020781154401C20706078401C6070E5808A
:102500003968202008623868C169C943C906DCD42B
:10251000E178002902D0E580E570D3E7E680D1E7D5
:102520000038014042000020A0030020A00000204D
:1025300000440040A00100200FB410B503A9044BD3
:10254000044A029800F07AF910BC08BC04B018479D
:102550001D3100085C0000200FB410B504A9074B22
:1025600002AA039800F06AF9044602A9002000F0CC
:1025700001FD204610BC08BC04B01847752F0008A8
:1025800037B514460846064B6A46214600F056F910
:1025900004466946002000F0EDFC20463EBD0000E8
:1025A000752F00082021020C01D010211046020ACC
:1025B00001D010460839020901D01046091F8208CF
:1025C00001D01046891E420801D0881E7047081AA3
:1025D000704700008307FF22DB0E9A408907090E2F
:1025E0009940002808DB830809489B001B181868DD
:1025F00090430843186070470007000F08388308AD
:1026000004489B001B18D86990430843D861704761
:1026100000E400E000ED00E030B5002805D0164CE5
:10262000021F20680023014605E0084630BD9042A5
:1026300003D8034640680028F9D1002B00D0596820
:10264000002B0AD01C68D51AA54204D11268A41820
:102650001A461C6002E05A6000E02260002807D0A1
:102660001468851AA54203D105686419146040688E
:102670005060184630BD000060000020F1B50E4CDF
:102680000F480C4E001B0D4FC508ED0000221146EF
:10269000009800F077FD002803D13068002801D0B1
:1026A0000020F8BD3C6000202560606001203060A3
:1026B000ECE7000064000020C4040020600000205B
:1026C000C006002002E008C8121F08C1002AFAD183
:1026D00070477047002001E001C1121F002AFBD1A2
:1026E00070470000F0B51FB484B007980699020D3A
:1026F000014314D04A484B491018484305140F9819
:1027000001280E981CD0281A401C0024464E474928
:10271000009401910290002814DA474227E00F98B4
:10272000012443A3012808D0002104980F9A846053
:102730000360C260416009B0F0BD0E98C143F4E788
:102740004042E2E7074612E0F80707D02246334648
:1027500001990098FDF71AFE019100902246334638
:1027600010461946FDF712FE04460E467F10002F54
:10277000EAD10298019B0028009A0799069802DA8C
:10278000FDF704FE01E0FDF769FE04460E46002257
:10279000284BFDF7FBFE03D80020C043014607E0AD
:1027A0000022254B20463146FDF73EFDFDF7CEFECB
:1027B000102409E0002C0ADB0A220023FDF7AEFCFE
:1027C000059B30321A55641E02460A43F2D111228B
:1027D000641C059B121B1C190F9B012B03D00123AA
:1027E00008430ED10AE0084304D011200E900020C7
:1027F0000F9084E70E98151A6D1E0BE00E9882421A
:1028000002DD00236D1C03E0824201DA00236D1E0D
:10281000002BEED004980F998260C16030C08AE727
:1028200001FCFFFF104D0000000024400000F03FBD
:10283000300000000000F0430000E03FFFB597B01B
:102840000646002518E2252877D100242746FD49B1
:10285000049400E00443761C32780120203A904032
:102860000842F7D130782A280ED00222307801466B
:102870003039092916D804990A23594330394018A8
:102880001443761C0490F1E7189802C8049118903C
:10289000002904DA01204003044348420490022046
:1028A0000443761C30782E2814D104200443707819
:1028B000761C2A2809D11898761C80C8189009E03F
:1028C0000A214F43303FC719761C30780146303912
:1028D0000929F5D930786C2810D006DC4C281AD09C
:1028E00068280ED06A2817D104E0742813D07A28FB
:1028F00012D110E00120400504430CE0012109053C
:1029000001E0032109050C437178814203D10120C4
:1029100000052418761C761C3078119066280BD0A0
:1029200013DC58287DD009DC00287BD04528F6D060
:102930004628F4D047281AD1A5E118E0632835D0FD
:10294000642870D0652812D19DE170286CD008DC15
:102950006728F1D069287BD06E280DD06F2806D16A
:10296000BAE073282ED0752871D0782859D01A9AD9
:10297000199990476D1C7EE16002400F022809D032
:1029800003280DD00428189801680DD00D60001D93
:10299000189070E11898EA1701680D604A60F6E730
:1029A000189801680D80F2E70D70F0E718986A46F4
:1029B00001781172001D18900020507202A800903A
:1029C000012005E0189802C8189000200091C0432B
:1029D00061070DD5002101E00199491C0191B9421F
:1029E00012DA8142F8DB009A515C0029F4D10BE045
:1029F000002101E00199491C01918142FADB019A11
:102A00000099895C0029F5D1019904981A9B471A0D
:102A100021463846199A00F097FA0199401945184D
:102A20000BE04FE02CE113E04EE0009800990078B5
:102A3000491C00911A9A199990470198401E0190DB
:102A4000401CF2D1214638461A9B199A10E137E012
:102A50000A200021009001916002410F022907D055
:102A6000189A01CA1892C2179446032908D00AE09E
:102A70001898C01DC108C90005C91891944607E0FF
:102A800000B2C2179446042902D140B2C1178C4645
:102A900000226146944506DA0A46002140429141EF
:102AA0008C462D2102E0210504D52B216A461173A5
:102AB000012103E0E10701D02021F7E7029155E071
:102AC0000A200AE0102008E01020009000210420D5
:102AD00004430191082703E00820002101910090A0
:102AE0006002410F022907D0189A01CA18920022E9
:102AF0009446032908D008E01898C01DC108C900F1
:102B000005C91891944603E080B2042900D1C0B2EF
:102B100000210291210729D51199702906D0009A28
:102B20001021019B4A401A4305D00EE040216A461D
:102B30001173012108E06146014306D030216A4645
:102B400011731199517302210291009A0821019B7E
:102B50004A401A430AD16146014301D1610705D5B4
:102B600030216A46117301217F1E02911199582963
:102B700004D035A10E910DA90D910DE037A1F9E713
:102B80006146019B009AFDF7C9FA0E9B8C469B5C3F
:102B90000D9A521E0D92137061460143F0D10D98AB
:102BA00005A9081A20300190600703D50120000410
:102BB000844300E001270198874201DD381A00E0D4
:102BC0000020019900904118029809180498401AB1
:102BD0000490E00306D421461A9B199A049800F049
:102BE000B3F94519002706E003A81A9AC05D1999A0
:102BF00090476D1C7F1C02988742F5DBE0030CD5E3
:102C000021461A9B199A049800F09EF9451904E090
:102C10001A9A3020199990476D1C0099481E00900F
:102C20000029F5DC08E00D980D990078491C0D91FC
:102C30001A9A199990476D1C0199481E0190002914
:102C4000F1DC63E1092801003031323334353637A5
:102C500038396162636465660000000030313233E8
:102C60003435363738394142434445460000000088
:102C700000F05AF94519761C3078002800D0E2E5BA
:102C800028461BB0F0BD600700D406271898C01D69
:102C9000C108C90048680A680831C30FDB071891EA
:102CA000190001D09CA108E0210501D59BA104E0F9
:102CB000E10701D09AA100E09AA1430011985B08B6
:102CC000109165280CD006DC452809D046281DD077
:102CD000472841D141E0662818D067283CD13CE024
:102CE0000021112F01DB112000E0781C01910090E0
:102CF00008A911A8FFF7F6FC139905910021119A74
:102D000015927F1C12980197009150E00120C00796
:102D100003900120019008A9009711A8FFF7E2FC99
:102D2000139A149905920022119B00921298159300
:102D3000059A0192002901D0104602E0791C401842
:102D40000190381A01D5019804E04042401E0090DD
:102D5000781C0190C01B029043E0012F00DA01278C
:102D60000021112F01DD112000E038460191009073
:102D700008A911A8FFF7B6FC13990591119A002133
:102D8000129815920091019721070CD40599B94228
:102D900001DB019900E00191012904DD159A491E2A
:102DA000515C302906D0B84201DA011D05DA012153
:102DB000029115E00199491EEDE7002805DC009914
:102DC000411800910199091A03E0019A411C9142AE
:102DD00000DD01910099401A401C02900120C007BB
:102DE0000390200706D402990198814202DB00205B
:102DF000C043029000206946C87707AF01210398BD
:102E00000337C907884224D0022011902B2012904A
:102E1000039800280CDA404203902D20129007E01E
:102E20000A210398FDF764F930317F1E0390397051
:102E30001199481E11900029F2DC03980028EFD167
:102E4000791E129808703078202108404530BF1E46
:102E5000387006A8C01BC01D039010980078002889
:102E600000D00120019941180298C0170918039851
:102E700009180498401A401E0490E00306D4214625
:102E80001A9B199A049800F05FF845191098007879
:102E9000002803D01A9A199990476D1CE00324D595
:102EA00021461A9B199A049800F04EF845191CE027
:102EB0000098002807DB00990598884203DD1598E3
:102EC000405C199901E0199930201A9A90470098AE
:102ED0006D1C401C00900298401E0290002804D1F6
:102EE0001A9A2E20199990476D1C0199481E01903D
:102EF0000029DDDC05E038781A9A7F1C1999904783
:102F00006D1C0399481E03900029F4DC21461A9B8E
:102F1000199A0498ACE600002D0000002B00000078
:102F20002000000000000000F8B5044600251E4601
:102F30001746880404D405E039462020B0476D1CAC
:102F4000641EF9D52846F8BDFFB50446002581B0BA
:102F50001E46C80301D5302700E02027880404D589
:102F600005E038460399B0476D1C641EF9D5284624
:102F700005B0F0BD0A68531C0B601070704700006C
:102F8000FFB5144C0E4607462169E06881B015462E
:102F9000814206DB40008100E060A06800F084FD13
:102FA000A06020698100A068475421698900081841
:102FB00046702069A1688000401885702169A26868
:102FC000890004988918C8702069401C206105B0E8
:102FD000F0BD000008000020F8B5052424070022F9
:102FE00040212046FDF73BFE012202212046FDF74D
:102FF00036FEFF242D342046FDF76CFD01251A4EC8
:10300000ED03002229463046FDF729FE6F1000220D
:1030100039463046FDF723FE2046FDF75BFD0122D1
:1030200029463046FDF71BFE012239463046FDF7A2
:1030300016FE2046FDF74EFD002229463046FDF7DC
:103040000EFE002239463046FDF709FE2046FDF708
:1030500041FD012229463046FDF701FE0122394695
:103060003046FDF7FCFDF8BD0008005070B50B4C74
:10307000002265780A4B0A701E78C12E04D007E042
:103080009E5C8654521CD2B2AA42F9D36078087072
:10309000FF2101310248FDF78AF870BD420000208F
:1030A000A0010020F8B506460EA0FFF745FA00245F
:1030B000104D11E0A868A700C15D32460EA0FFF7D1
:1030C0003BFAA868C05DB04205D121460DA0FFF7CC
:1030D00033FA2046F8BD641C28698442EADB0020EC
:1030E000C043F8BD0D0A526F757465207461626C3F
:1030F000653A000008000020253032583D25303266
:10310000582C20003B20526F757465696E64657899
:103110003A20693D25640D0A0000000013B5044BF8
:10312000012269460348FEF7E1FC00981CBD00003F
:10313000FFFF0000A003002010B5017A012909D08B
:1031400002290AD003290BD004290CD007A0FFF7CD
:10315000F3F910BD00F058FC10BD00F021FC10BDCB
:1031600000F0F4FA10BD00F0CDFA10BD556E6B6E94
:103170006F776E2070726F746F636F6C3A20256486
:103180000D0A0000F8B50B30C608F600104D19E026
:103190002068B04215D3B0420BD96368871B201D4D
:1031A0000093FCF7EBFFA019009B076043602860C9
:1031B00004E060682860201DFCF7E0FF201D266009
:1031C000F8BD251D2C68002CE2D10020F8BD0000C0
:1031D0006000002094B0FDF757FDC54C0220E06070
:1031E0000820FFF74BFAA060FEF752FEFEF7ECFC5A
:1031F000FEF74EFDFEF780FDFFF718F9BDA0FFF7C3
:103200009BF920462278C0A11C30FFF7A5F9FDF7F5
:1032100055FAFEF790FDBDA200211020FEF7ECFD4F
:103220002178BDA0FFF788F922461C3200216420D6
:10323000FEF7E2FDFFF7D0FE052002210007FDF7B3
:1032400009FDBA4D012818D0B9A0FFF775F9FF2183
:103250000131B648FCF7ABFF0027BF4E0520378091
:103260003A4602210007FDF7FAFC0520022100077B
:10327000FDF7F0FC00285CD05EE0B8A0FFF75CF939
:103280009B480A212430FDF7E5FAFF202D30FDF799
:1032900021FCBB480178BBA0FFF74EF90026A95DD1
:1032A000C0A0FFF749F9C1A0FFF746F9761C0C2E24
:1032B000F5DB8F49491C08462D30FFF7D7FE6178B2
:1032C000BBA0FFF739F91821C048FCF770FF884F01
:1032D00000262E37B95DB3A0FFF72EF9B3A0FFF794
:1032E0002BF9761C0C2EF5DBB9A202210020FEF78B
:1032F00083FD0326BA5DABA1B448FFF72DF9300179
:10330000001FC0B2B14A0221FEF776FD761C052EE1
:10331000F0DBB1A202215220FEF76EFD3A7AA1A1A4
:10332000AA48FFF719F9A94A02216820FEF764FDAF
:103330008DE77FA0FFF700F9FDF7A6FC21780223B7
:1033400010220846FFF71CFEFDF790FC684CA349CD
:103350006269831A8B4201D2002A5BD16061FDF75A
:10336000FDFA012856D19EA0FFF7E6F8A2486A466A
:10337000817813915174C178129191740178D1744C
:10338000009140781075019020219048FCF70FFFC4
:103390009AA18E48129B139AFFF7DEF88B4A0621FA
:1033A0000020FEF729FDE078FFF77CFE0146009043
:1033B00097A0FFF7C1F80098401C2FD00098A16893
:1033C00080004018827869460A72C07848720920E5
:1033D00088721020C872022008732078487388739E
:1033E000E078C873032008748EA0FFF7A5F877482B
:1033F0001D2202A91830FCF7C1FE744818308378EA
:103400004278017891A0FFF797F8704997A018319A
:10341000FEF7E2FF207901280ED020E0E17895A0A8
:10342000FFF78AF8E07800F001FCFDF71FFCA061CF
:1034300001202071677102E0607900280FD1FDF74B
:1034400015FCA169401A9649884208D9607900287C
:1034500005D1E07800F0EAFBFDF708FCA0613088B8
:10346000012831D12A7808A8C27269780173A97835
:103470004173E97881732979C173697901741722DD
:10348000A91D1130FCF77AFE1C20295C002908D008
:10349000285CFF210131A071091A82A0FFF74CF8C6
:1034A00001E0401EF1D50024295D3EA0FFF744F85D
:1034B000641CFF2CF8D90AA8FFF73EFEFF2101315A
:1034C0001A48FCF774FE37807F4C2088012800D012
:1034D0003AE77EA0FFF730F8894964A0FEF77CFF49
:1034E000FF2101318648FCF762FE27802CE70000AF
:1034F000080000204C4F524120426F617264204C02
:103500004544204F4B0D0A00256400005757534E89
:10351000204E4F44450000000D0A5757534E204E91
:103520006F64652025640D0A00000000A0010020E2
:103530000D0A4D31203D20303B204D30203D2030C4
:10354000205472616E73706172656E74206D6F6469
:1035500065200D0A00000000480000200D0A4D31D2
:10356000203D2031203B204D30203D203020526531
:10357000676973746572206D6F6465200D0A0000C1
:10358000430000200D0A0D0A4C4F5241205245477E
:1035900020434F44452025642055415254322D3E4E
:1035A000000000002530325800000000200000001C
:1035B0000D0A0D0A4C4F52412052454720434F44BB
:1035C00045202564205245472D3E0000680000201C
:1035D000416464723A00000043683A00102700001A
:1035E0000D0A52656164204448543131205375639B
:1035F00063656564200D0A0000000020543A2564CC
:103600002E25644320483A25642E2564520000008C
:103610000D0A526F757465496E6465783A202564A9
:103620000D0A00000D0A526F75746520666F756E85
:103630006420666F722064657374696E6174696F6B
:103640006E206E6F64650D0A0000000053656E64A5
:10365000207061636B657420746F202530325825AB
:10366000303258253032580D0A00000025730D0AFB
:10367000000000000D0A4E6F20726F7574652066A1
:103680006F756E6420666F722064657374696E6115
:1036900074696F6E206E6F64652025640D0A0000EA
:1036A000881300000D0A7265636569766564506170
:1036B000636B65745769746852535349203A2D25DA
:1036C0006464426D0D0A0000460000200D0A526538
:1036D000636569766520446174652066726F6D204C
:1036E000504320616E642053656E6420746F2044E3
:1036F000657374696E6174696F6E0D0A0000000075
:10370000A000002010B50446417906A0FEF714FF82
:10371000E0782070207960701020E0700220207125
:1037200010BD00000D0A526563656976656420412D
:10373000636B6E6F776C656467656D656E7420662C
:10374000726F6D2025640D0A00000000FEB504466E
:10375000417951A0FEF7F0FE584DE0792978884272
:103760002AD120215648FCF722FD564E717A307A34
:1037700001910090F379B27953A15148FEF7ECFE24
:1037800056A0FEF7D9FE4E4A06210020FEF734FB74
:103790000027F15D56A0FEF7CFFE7F1C102FF8DB4F
:1037A00054A0FEF7C9FEFF2101314648FCF7FFFC9B
:1037B00051490020088023E0E878FFF773FC0646B3
:1037C00001464EA0FEF7B8FE701C19D02878A071F3
:1037D0001020E07002202071A968B000411889789B
:1037E0002170A9681D224018C078607034482146B5
:1037F0001830FCF7C3FC324945A01831FEF7ECFD48
:103800002279E178607900F089F9052424074021C4
:103810002046FDF71FFA00283DD102212046FDF782
:1038200019FA002837D13CA0FEF786FE40A103C953
:1038300002910190062101A8FDF70CF8FF202D3020
:10384000FDF748F900201D490090891C6846FFF7E4
:103850000DFCA97838A0FEF76FFE00246E46315D9E
:103860003CA0FEF769FE3DA0FEF766FE641C042C3A
:10387000F5DB3BA0FEF760FE6846C178FF20013013
:10388000411A38A0FEF758FE6846C078A979091A8F
:103890003CA0FEF751FEFEBD0D0A526563656976D8
:1038A00065642044617461205061636B65742066B7
:1038B000726F6D2025640D0A0000000008000020D2
:1038C00068000020A0010020543A25642E2564439E
:1038D00020483A25642E2564520000000D0A5265E6
:1038E00063656976652044617465203A00000000D4
:1038F000253458000D0A0000480000200D0A726FA0
:10390000757465496E6465783A2025640D0A000077
:1039100025730D0A000000000D0A204D31203D20C6
:10392000303B204D30203D2030200D0A00000000AB
:10393000C0C1C2C3000100000D0A0D0A4C4F524124
:103940002052454720434F44452025642052454797
:103950002D3E0000253032580000000020000000FD
:103960000A0000000D0A63757272656E7443686127
:103970006E6E656C4E6F6973653A202D25646442E6
:103980006D0D0A000D0A63757272656E744368618D
:103990006E6E656C534E523A20256464420D0A00E7
:1039A0007CB50446C17980790090019163792279D0
:1039B000E1780E48FEF7C0FDE079FFF773FB0C4D90
:1039C000411C06D0A96880004018C078217988423F
:1039D0000AD02379E2786179A079FFF7D1FA012042
:1039E000687104A0FEF7A8FD7CBD0000E846000851
:1039F000080000200D0A416464526F7574696E6797
:103A0000456E7472790D0A0070B50446C079FFF7EF
:103A100049FB064661790FA0FEF78EFD164D701C1E
:103A200007D0A968B00040184178607900F0B4F878
:103A300070BD28790128FBD0E17910A0FEF77CFD4C
:103A4000E07900F0F3F8FDF711F9A8610120287181
:103A500070BD00000D0A5265636569766564205289
:103A60006F75746520526571756573742066726F29
:103A70006D2025640D0A0000080000200D0A4E6F1D
:103A800020726F75746520666F756E6420666F7244
:103A90002064657374696E6174696F6E206E6F6403
:103AA000652025640D0A0000F3B583B005001AD027
:103AB00028680190284680380290C76F04983E1FFE
:103AC000864200D906462846FEF7A6FD0446009128
:103AD000324629460498FFF755FB0199002806D085
:103AE000016005B0F0BD0498FEF7C8FDF9E7296054
:103AF0000299002CCF670AD021686218291F8A42D8
:103B000002D9291B091F216000996160E9E7024A77
:103B100000991160E5E700006000002010B588B052
:103B20000446684601704270092181700D48017891
:103B3000684641718171C471042101720AA1093082
:103B4000FCF747FB1D2269460848FCF717FB0749AD
:103B500007A0FEF741FC214607A0FEF7EDFC08B0E8
:103B600010BD00000800002041636B0080000020B1
:103B700025730D0A000000000D0A41636B6E6F771C
:103B80006C656467656D656E742073656E74207412
:103B90006F2025640D0A000030B589B00446FF206F
:103BA0006A4610705070092090701020D07002206A
:103BB0000D4D10712B7853719171D471107202A850
:103BC0000AA10130FCF705FB1D2269460A48FCF7F3
:103BD000D5FA094909A0FEF7FFFB2A78214609A07A
:103BE000FEF7AAFC09B030BD08000020526F7574C2
:103BF000655265706C7900008000002025730D0A05
:103C0000000000000D0A526F757465205265706CDB
:103C1000792073656E7420746F2025642066726F3E
:103C20006D206E6F64652025640D0A0010B588B0A4
:103C30000446FF206A4610705070092090701020D2
:103C4000D070022010710D480DA100785071907154
:103C5000D4710120107210460930FCF7BAFA1D2207
:103C600069460A48FCF78AFA084909A0FEF7B4FB3E
:103C7000214609A0FEF760FC08B010BD0800002036
:103C8000526F75746552657100000000800000205D
:103C900025730D0A000000000D0A526F757465202F
:103CA000526571756573742073656E7420746F202E
:103CB00066696E64206E6F64652025640D0A0000DD
:103CC00000000000000000000000000000000000F4
:103CD000000000F800000000000000333000000089
:103CE00000100C06100C0600000000000000000090
:103CF00040C07840C0784000043F04043F04040002
:103D0000007088FC08300000001820FF211E000011
:103D1000F008F000E018000000211C031E211E0026
:103D200000F00888700000001E21232419272110AC
:103D300010160E000000000000000000000000004F
:103D4000000000E0180402000000000718204000F6
:103D500000020418E00000000040201807000000E6
:103D6000404080F0804040000202010F010202004A
:103D7000000000F0000000000101011F010101002E
:103D8000000000000000000080B070000000000093
:103D9000000000000000000000010101010101011C
:103DA00000000000000000000030300000000000B3
:103DB0000000000080601804006018060100000088
:103DC00000E010080810E000000F102020100F0085
:103DD000001010F8000000000020203F202000000C
:103DE0000070080808887000003028242221300064
:103DF00000300888884830000018202020110E006C
:103E00000000C02010F8000000070424243F240014
:103E100000F80888880808000019212020110E00E9
:103E200000E0108888180000000F112020110E00FB
:103E300000380808C83808000000003F00000000F3
:103E40000070880808887000001C222121221C00B4
:103E500000E010080810E0000000312222110F00DD
:103E6000000000C0C0000000000000303000000072
:103E700000000080000000000000806000000000E2
:103E800000008040201008000001020408102000FB
:103E90004040404040404000040404040404040046
:103EA00000081020408000000020100804020100DB
:103EB000007048080808F0000000003036010000DB
:103EC000C030C828E810E0000718272423140B008E
:103ED0000000C038E0000000203C23020227382008
:103EE00008F8888888700000203F202020110E00EC
:103EF000C0300808080838000718202020100800E3
:103F000008F808080810E000203F202020100F00CB
:103F100008F88888E8081000203F20202320180097
:103F200008F88888E8081000203F200003000000FF
:103F3000C03008080838000007182020221E0200A0
:103F400008F808000008F808203F210101213F205F
:103F5000000808F8080800000020203F202000008A
:103F600000000808F8080800C08080807F0000007A
:103F700008F888C028180800203F200126382000B3
:103F800008F8080000000000203F2020202030001A
:103F900008F8F800F8F80800203F003F003F200034
:103FA00008F830C00008F808203F200007183F003C
:103FB000E01008080810E0000F10202020100F006B
:103FC00008F808080808F000203F2101010100005E
:103FD000E01008080810E0000F18242438504F00A3
:103FE00008F8888888887000203F2000030C302063
:103FF00000708808080838000038202121221C00A1
:10400000180808F8080818000000203F20000000E9
:1040100008F808000008F808001F202020201F00D2
:104020000878880000C83808000007380E01000032
:10403000F80800F80008F800033C0700073C0300FC
:10404000081868808068180820302C03032C302062
:104050000838C800C83808000000203F20000000D1
:1040600010080808C8380800203826212020180029
:10407000000000FE020202000000007F40404000FD
:10408000000C30C000000000000000010638C00035
:1040900000020202FE000000004040407F000000DD
:1040A0000000040202020400000000000000000002
:1040B0000000000000000000808080808080808000
:1040C00000020204000000000000000000000000E8
:1040D00000008080808000000019242222223F20DE
:1040E00008F8008080000000003F112020110E0021
:1040F0000000008080800000000E112020201100B0
:10410000000000808088F800000E112020103F2061
:104110000000808080800000001F222222221300E5
:10412000008080F0888888180020203F2020000030
:104130000000808080808000006B949494936000E5
:1041400008F8008080800000203F210000203F20F0
:1041500000809898000000000020203F20200000F0
:10416000000000809898000000C08080807F0000E0
:1041700008F8000080808000203F24022D302000BD
:10418000000808F8000000000020203F2020000068
:104190008080808080808000203F20003F20003F82
:1041A0008080008080800000203F210000203F2090
:1041B0000000808080800000001F202020201F0041
:1041C000808000808000000080FFA12020110E0070
:1041D0000000008080808000000E112020A0FF8061
:1041E000808080008080800020203F21200001000E
:1041F0000000808080808000003324242424190063
:10420000008080E0808000000000001F202000006F
:104210008080000000808000001F202020103F20B0
:10422000808080000080808000010E300806010040
:1042300080800080008080800F300C030C300F00E5
:1042400000808000808080000020312E0E31200010
:10425000808080000080808080818E701806010040
:1042600000808080808080000021302C222130005E
:1042700000000000807C020200000000003F40407F
:1042800000000000FF00000000000000FF00000030
:104290000002027C800000000040403F000000005F
:1042A00000060101020204040000000000000000FA
:1042B0001060028C0000FE9292929292FE0000002A
:1042C00000000000000000000000000000000000EE
:1042D00004047E01407E42427E427E42427E400095
:1042E00000000000000000000000000000000000CE
:1042F0001060028C00FE929292929292FE00000058
:1043000000000000000000000000000000000000AD
:1043100004047E014448507F40407F5048444000A0
:10432000000000000000000000000000000000008D
:104330000000FC242424FC252624FC24242404003E
:10434000000000000000000000000000000000006D
:1043500040308F80844C55252525554C8080800029
:10436000000000000000000000000000000000004D
:104370004020D04C4344C8102000F80000FF00004B
:10438000000000000000000000000000000000002D
:1043900000003F404448474070000F40807F0000CD
:1043A000000000000000000000000000000000000D
:1043B0000000FE92929292FE92929292FE00000073
:1043C00000000000000000000000000000000000ED
:1043D000403801003C4040424C40407005083000ED
:1043E00000000000000000000000000000000000CD
:1043F0004042CC0000E2222A2AF22A2622E00000D3
:1044000000000000000000000000000000000000AC
:1044100080403F4080FF898989BF89A9C9BF80004A
:10442000000000000000000000000000000000008C
:10443000008060F807000424242526242424040096
:10444000000000000000000000000000000000006C
:10445000010000FF000000F94949494949F90000FD
:10446000000000000000000000000000000000004C
:1044700080828282FE8282828282FE8282828000AA
:10448000000000000000000000000000000000002C
:10449000008040300F0000000000FF00000000001E
:1044A000000000000000000000000000000000000C
:1044B0000000181610D0B8979090909294100000B9
:1044C00000000000000000000000000000000000EC
:1044D0000020108C838041462810284443808000AF
:1044E00000000000000000000000000000000000CC
:1044F0001010D0FF901000FC24E4242223E20000DE
:1045000000000000000000000000000000000000AB
:10451000040300FF0083601F8041261826418000AD
:10452000000000000000000000000000000000008B
:10453000008060F807404848E85F4848484040002D
:10454000000000000000000000000000000000006B
:10455000010000FF0000020B1222D20A0600000038
:10456000000000000000000000000000000000004B
:104570000000FC04D4545454D4047F84C536040091
:10458000000000000000000000000000000000002B
:104590008866010063828292AB8482C10224CF00CC
:1045A000000000000000000000000000000000000B
:1045B00080809E9292929EE0809EB2D2929E8000D7
:1045C00000000000000000000000000000000000EB
:1045D0000808F4949292F10001F2929494F8080081
:1045E00000000000000000000000000000000000CB
:1045F00090523410FF10345280708F0808F8080071
:1046000000000000000000000000000000000000AA
:10461000829A566322528E008040330C33408000D1
:10462000000000000000000000000000000000008A
:104630001010FF109000FE929292F292929E8000D3
:10464000000000000000000000000000000000006A
:1046500042827F0180601F00FC44474444FC00000C
:10466000000000000000000000000000000000004A
:10467000010002000400060008000A000C001000FF
:104680002000400080000001000000000000000049
:10469000000000000000000000000000000000001A
:1046A0000000000000000000010000000200000007
:1046B00003000000040000000600000007000000E6
:1046C00008000000090000000000000000000000D9
:1046D00000000000000000000100000002000000D7
:1046E00003000000040000000D0A5265636569764E
:1046F000656420526F757465205265706C79206610
:10470000726F6D2025303258253032582C200D0A1A
:104710007061636B657420736F7572636549443AA9
:10472000253032582C200D0A666F72776172644909
:10473000443A253032582C200D0A6465737449447C
:104740003A253032580D0A00684700080000002062
:1047500068000000C4260008D04700086800002058
:10476000580A0000D42600080000000000000000E5
:104770000200000100000000000000000A0000002C
:104780000000000000000000000000000000000029
:1047900000000000C00007100201612009D0C10024
:1047A0000000000000000000000000000101000007
:1047B00000000000010000000400000000000000F4
:1047C0000024F400000000000000000000000000D1
:04000005080000C12E
:00000001FF
